:020000040800F2
:1000000098040020D1000008F50C0008AD0B000892
:1000100000000000000000000000000000000000E0
:10002000000000000000000000000000710D00084A
:1000300000000000000000003D0D0008730D0008E6
:10004000E3000008E3000008E3000008E300000804
:10005000E3000008E3000008E3000008E3000008F4
:10006000E3000008E3000008E3000008E3000008E4
:10007000E3000008E3000008E3000008E3000008D4
:10008000E3000008E300000800000000E3000008AF
:10009000E3000008E3000008E3000008E3000008B4
:1000A000E3000008E3000008E3000008E3000008A4
:1000B000E300000800000000E30000080348854654
:1000C00000F03CF800480047E510000898040020C4
:1000D0000448804704480047FEE7FEE7FEE7FEE7E6
:1000E000FEE7FEE7C50D0008BD00000830B50B4671
:1000F000014600202022012409E00D46D5409D4202
:1001000005D31D469540491B254695404019154687
:10011000521E002DF1DC30BDD2B201E00270401C55
:10012000491EFBD270470022F6E710B513460A4677
:1001300004461946FFF7F0FF204610BD064C012586
:10014000064E05E0E36807CC2B430C3C984710347F
:10015000B442F7D3FFF7B6FF4C1100086C1100084A
:10016000F8B500238DE001249C40A44622407DD0B8
:100170004C68022C01D0122C0CD1DC08A4002718EA
:100180003C6A5D07ED0E0F26AE40B4430E69AE40EB
:1001900026433E6205685E000324B4400F79A54300
:1001A000BF07BF0FB7402F4307604D68012D05D033
:1001B000022D03D0112D01D0122D0ED18568CF68EC
:1001C000A543B7402F43876047686546AF430D7925
:1001D000ED06ED0F9D403D434560C568A5438C6825
:1001E000B4402C43C4604C68E40049D5284CA56950
:1001F00001263543A561A4699D0834400094254C2F
:10020000AD002F19BC689D072E0F0F25B540AC43DC
:100210000925ED06A84201D100250FE01E4DA84298
:1002200001D101250AE01D4DA84201D1022505E0BA
:100230001B4DA84201D1032500E00525B54025430B
:10024000BD60184C25684E689543F60300D51543EC
:10025000256065684E689543B60300D51543656013
:10026000A5684E689543F60202D500E008E0154304
:10027000A560E5684E689543B60200D51543E56074
:100280005B1C0A681446DC4000D06CE7F8BD000037
:10029000001002400000014000040048000800482F
:1002A000000C004800040140002A01D08161704721
:1002B000816270470148006870470000100000200C
:1002C00002480168491C01607047000010000020CE
:1002D00010B506480168102211430160002000F0AB
:1002E00007F800F017F8002010BD000000200240C1
:1002F00010B5044600F0BCF87D21C900FFF7F6FEFA
:1003000000F0A2FA00222146501E00F017F800204B
:1003100010BD000008B508488169012211438161C0
:10032000816911400091C26901040A43C261C06938
:100330000840009008BD00000010024010B500F019
:10034000DBFC10BDF8B5054644480E460068C00702
:10035000C00FB0420AD24148016849084900314300
:1003600001600068C007C00FB0425CD128783C4CE7
:10037000800705D56068F0218843A968084360605C
:100380002878C0073FD06868012813D02168022868
:1003900013D08907002946DA61688908890001437A
:1003A0006160FFF787FF6968074601290DD00229C0
:1003B00017D024E021688903ECE78901EAE7FFF719
:1003C00079FFC11B2748814217D860680007800F5A
:1003D0000128F4D117E0FFF76DFFC11B21488142CE
:1003E0000BD860680007800F0228F4D10BE0FFF7FC
:1003F00061FFC11B1B48814201D90320F8BD606821
:100400000007800FF3D115480168C907C90FB14231
:100410000BD9016849084900314301600068C007F1
:10042000C00FB04201D00120F8BD2878400706D5A2
:100430006068072109028843E9680843606000F0AA
:100440001DF86168084A0906090F515CC840074950
:1004500008600020FFF74CFF0020F8BD002002409C
:1004600000100240881300003C1100081400002016
:1004700001480068704700001400002010B512A366
:100480000FCB88B06C460FC413A30FCB0FC4164913
:100490004A680C20134603401448042B0FD0082B45
:1004A0000DD193021B0F6C46E45CC96A04AB0907CB
:1004B000090F595CD20304D5FFF718FE604308B05A
:1004C00010BD0B486043FAE702030405060708095C
:1004D0000A0B0C0D0E0F101001020304050607088D
:1004E000090A0B0C0D0E0F100010024000127A00CA
:1004F00000093D00FEB504460078D04DC00747D046
:1005000068680007800F012807D068680007800F1F
:10051000022809D16868C00306D52868800337D54A
:10052000606800287ED033E0012062680004012A60
:1005300011D08100002A01D0052A10D02A688243F8
:100540002A602868884328606068002814D0FFF774
:10055000B1FE06460CE0296801432960F4E72A68E9
:100560000A432A60F7E7FFF7A5FE801B64286FD8CF
:1005700028688003F7D50BE0FFF79CFE064604E0F1
:10058000FFF798FE801B6428F1D828688003F7D411
:1005900020780126800700283BDA68680007800F72
:1005A00007D068680007800F022809D16868C00377
:1005B00006D42868800715D5E068012832D111E0FB
:1005C000E0680028286815D030432860FFF772FEE5
:1005D000074604E0FFF76EFEC01B0228C7D8286854
:1005E0008007F7D52868F82188432169C9000843A6
:1005F00028600EE0400840002860FFF75BFE0746D9
:1006000004E0FFF757FEC01B0228B0D82868800717
:10061000F7D42078000724D5E0690028686A10D054
:10062000304300E008E16862FFF744FE074604E05B
:10063000FFF740FEC01B022899D8686A8007F7D5EB
:100640000FE0400840006862FFF734FE074605E00F
:100650009DE0FFF72FFEC01B022888D8686A80073C
:10066000F7D4207804274007002860DA00200190A2
:10067000E869C00008D4E969B8060143E961E9699D
:1006800001400120009101906D480168C90511D415
:100690000168821511430160FFF70CFE009005E030
:1006A000FFF708FE0099401A642870D86448006873
:1006B000C005F5D5A06801280AD0002801D005287A
:1006C00010D0286A400840002862286AB84301E038
:1006D000286A30432862A068002812D0FFF7EAFD9C
:1006E00000900AE0286A38432862F1E7FFF7E2FD4C
:1006F0000099411A5348814249D8286A8007F5D5A4
:100700000DE0FFF7D7FD009006E0FFF7D3FD00995D
:10071000411A4C4881423AD8286A8007F5D401989A
:10072000002804D0E969012000078143E9612078AD
:10073000C00635D5606901280CD0401D686B23D0F8
:1007400038436863686B400840006863FFF7B2FD98
:10075000064622E0686B38436863686B3043686321
:10076000FFF7A8FD064604E0FFF7A4FD801B022862
:100770005BD8686B8007F7D5686BF8218843A1695F
:10078000C900084368630BE0B8436863F4E74CE0D2
:10079000FFF790FD801B022847D8686B8007F7D4CD
:1007A000206A002846D069680907890F022943D0CA
:1007B000012636060228286805D0B0432860FFF7D6
:1007C00079FD044633E0B0432860FFF773FD074628
:1007D00004E0FFF76FFDC01B022826D828688001BF
:1007E000F7D4E86AE16A000900010843E862616A37
:1007F000A06A084369683D22120491430843686077
:10080000286830432860FFF755FD044604E0FFF7F1
:1008100051FD001B022808D828688001F7D509E09F
:10082000FFF748FD001B022801D90320FEBD286800
:100830008001F5D40020FEBD0120FEBD0010024065
:100840000070004088130000094910B5401E88421E
:1008500001D9012010BD074C60610321081F00F081
:100860004BFA0020A06107202061002010BD00008D
:10087000FFFFFF0000E000E070B502462032137F6A
:10088000012B1BD001231377022454770468656879
:100890007026B5436560046865680E683543656019
:1008A0000468A5688026B543A56000688468496827
:1008B0000C43846053770020107770BD022070BD18
:1008C000F8B50D46040005D026462036707F002876
:1008D00002D006E00120F8BD00203077204600F06D
:1008E0003BF80220707720688168C908C9008160E0
:1008F000211D206800F094FA226890689369116ABB
:100900002F680743BC461248AF6903403F021F43AC
:10091000A868104B3843EF6918403F020743EB6863
:1009200028693B432F6A00013F0338431843AA2339
:1009300099436B686D6967462D010D432B439760A2
:100940002168886120680362012070770020F8BD6B
:10095000FCFCFFFF0303FFFF10B586B00446142123
:100960006846FFF7E0FB1149206888421BD1104818
:10097000C26902210A43C261C2690A400592436901
:100980000A04134343614069019110400590C0205F
:1009900000900020029003900120049009206946F5
:1009A000C006FFF7DDFB06B010BD000000040040EC
:1009B0000010024010B504460068002911D0042937
:1009C00004D00122002100F075FA206801220421E0
:1009D00000F070FA206801680122114301600020D4
:1009E00010BD01220021F3E710B586B004461421A2
:1009F0006846FFF798FB012120688907884214D1D7
:100A00000B48426949130A43426140690840059016
:100A10000420009000200221029003900191049193
:100A200009206946C006FFF79BFB06B010BD000019
:100A300000100240F8B5064604462036307F0D46C9
:100A400001280DD001203077022070770427002A7A
:100A500008D0042A16D0082A2AD00C2A4DD137E013
:100A60000220F8BD206800F031FA20688169082270
:100A70001143816120688169B9438161206881697E
:100A80002A6912E0206800F065FA20688269012175
:100A9000C9020A438261206881690122920291435E
:100AA0008161206881692A6912021143816124E011
:100AB000206800F08FFA2068C26908210A43C261E9
:100AC0002068C169B943C1612068C1692A6912E01F
:100AD000206800F0C1FA2068C1690122D2021143E6
:100AE000C1612068C269012189028A43C26120680C
:100AF000C1692A6912021143C16101207077002087
:100B00003077F8BD70B5040005D025462035687FE4
:100B1000002802D006E0012070BD00202877204682
:100B200000F00AF802206877211D206800F078F9AB
:100B300001206877002070BD08B500680121890791
:100B4000884207D10448C16901221143C161C069CB
:100B50001040009008BD00000010024010B504468F
:100B60000068012200F0A6F90C482168814208D0F3
:100B70000B48814205D00B48814202D00A4881428D
:100B800004D1486C0122D2031043486420680168F4
:100B9000012211430160002010BD0000002C014023
:100BA000004001400044014000480140FEE70000D1
:100BB000F0B587B014216846FFF7B5FA1D484269C1
:100BC000012189050A43426142690A40059242694E
:100BD00049110A43426142690A400592426989000B
:100BE0000A4342614069144F0840CC12059000222C
:100BF00021463846FFF758FB03263602092000221B
:100C00003146C006FFF750FB0094002401250195F2
:100C10000294694638460394FFF7A2FA0920029429
:100C20006946C006009601950394FFF799FA07B04C
:100C3000F0BD0000001002400008004810B58AB066
:100C4000002407941C2168460894FFF76CFA0121E0
:100C50000F48890712C0046084600E490461416036
:100C60000838FFF74FFF079407A909480894FFF7D2
:100C700003FE6020009001940294082269460494C7
:100C80000348FFF7D7FE0248FFF7AEFE0AB010BDDB
:100C9000180000201F03000010B58CB02421684606
:100CA000FFF741FA00241049104809940A9412C031
:100CB000046084600E490461416001200A210090B3
:100CC000019403940290049108910690059407946E
:100CD00069460648FFF7F4FD099409A903480A94F8
:100CE000FFF7CAFD0CB010BD000400405800002002
:100CF000FFFF0000704700008307FF22DB0E9A40D1
:100D00008907090E994000280BDA0007000F083800
:100D1000830808489B001818C36993430B43C361B9
:100D20007047830804489B001B18186890430843C9
:100D30001860704700ED00E000E400E0704700003C
:100D40000248406A02490860704700000004004001
:100D50000000002010B50C4681B209200122C00617
:100D6000FFF7A2FA01480068C46310BD1800002014
:100D7000704710B5FFF7A4FA10BD30B591B030211F
:100D80006846FFF7D0F900240D94012003900E94DB
:100D9000022510200994009504900F94C0030A9036
:100DA0000C9408950B946846FFF7A4FB07200C9061
:100DB00080200E900D9500210F940CA8FFF7C2FA29
:100DC00011B030BD13480168012211430160416830
:100DD000114A114041600168104A114001600168E8
:100DE000012292049143016041683F221204914321
:100DF0004160C16A09090901C162016BFF225432D5
:100E000091430163416B49084900416300218160BE
:100E100070470000001002400CB8FFF8FFFFF6FE1C
:100E2000F0B502681D4B0124A4071D4D984203D064
:100E3000A04201D0A84203D17026B2434E6832438B
:100E4000184E194F98420DD0A0420BD0A84209D09D
:100E5000164CA04206D0B04204D0B84202D0144C86
:100E6000A04204D103242402A243CC68224380245C
:100E7000A2434C69224302608A68C2620A688262A5
:100E8000984206D0B04204D0B84202D0084A9042FC
:100E900001D10969016301214161F0BD002C0140CC
:100EA0000004004000400140004401400020004098
:100EB0000048014010B50123046A8B409C43046242
:100EC000036A8A401343036210BD0000F0B5026A52
:100ED000520852000262056A436882697024A24384
:100EE00092080C6892001443022295438A68164EB9
:100EF0002A43144DA84207D0B04205D0134FB84240
:100F000002D0134FB84206D10827BA43CF6817431F
:100F1000042297433A46A84207D0B04205D00B4D71
:100F2000A84202D00A4DA84206D103252D02AB43A8
:100F30004D691D438B692B4343608461496841635C
:100F40000262F0BD002C014000400140004401401D
:100F50000048014070B5026A10239A430262056A94
:100F60004268836973242402A3430C6824021C434F
:100F700020239D438B681B012B43124DA84208D1AF
:100F80001D46CB688026B5431B012B434025AB4350
:100F900008E00D4DA84205D00C4DA84202D00C4DE2
:100FA000A84208D10325AD02AA434D69AD001543FF
:100FB0008A6992002A4342608461496881630362BE
:100FC00070BD0000002C0140004001400044014081
:100FD0000048014070B5026AFF2301339A43026260
:100FE000056A4368C2697024A24392080C689200A3
:100FF00014430122520295438A6812022A43124D79
:10100000A84208D11546CA68C614B54312022A433D
:101010000515AA4308E00D4DA84205D00C4DA84285
:1010200002D00C4DA84208D103252D03AB434D69D6
:101030002D011D438B691B012B434360C46149682B
:10104000C163026270BD0000002C014000400140FD
:10105000004401400048014030B5026A01231B03EF
:101060009A430262046A4268C36973252D02AB4346
:101070000D682D021D4301235B039C438B681B03FA
:1010800023430C4CA04208D00B4CA04205D00B4C83
:10109000A04202D00A4CA04205D10124A403A243DD
:1010A0004C69A40122434260C5614968016403623E
:1010B00030BD0000002C01400040014000440140D0
:1010C0000048014002E008C8121F08C1002AFAD1F6
:1010D00070477047002001E001C1121F002AFBD1B8
:1010E00070470000FFF7F4F8FFF747FEFFF760FDD9
:1010F000FFF7A4FDFFF7D0FD08210E48FFF72EFDF6
:101100000C4800214030FFF755FC0A4804214030CC
:10111000FFF750FC074C084D4B274034FF002E1FB3
:10112000FFF70EFEA8883946FFF714FE2068406AD4
:101130003060F5E7180000200400002000000000E7
:101140000000000001020304060708096C110008F2
:101150000000002018000000C410000884110008DE
:101160001800002080040000D410000800000000D7
:101170000800000100020000000000000000000064
:0411800000127A00DF
:04000005080000BD32
:00000001FF
