:020000040800F2
:10000000B0050020050100080F1A00085F1800085D
:100010000D1A00080903000869200008000000000C
:10002000000000000000000000000000011C0008AB
:100030000B03000800000000111A0008031C000850
:100040001F0100081F0100081F0100081F01000810
:100050001F0100081F0100081F0100081F01000800
:100060001F0100081F0100081F0100081F010008F0
:100070001F0100081F0100081F0100081F010008E0
:100080001F0100081F0100081F0100081F010008D0
:100090001F0100081F0100081F0100081F010008C0
:1000A0001F0100081F0100081F0100081F010008B0
:1000B0009D1C0008A91C00081F0100081F01000862
:1000C0001F0100081F0100081F0100081F01000890
:1000D0001F0100085D2000081F0100081F01000823
:1000E0001F0100081F0100081F010008DFF810D0E1
:1000F00000F0F8F800480047A9200008AFF300809E
:10010000B00500200648804706480047FEE7FEE7A6
:10011000FEE7FEE7FEE7FEE7FEE7FEE7FEE7FEE7B7
:10012000551C0008ED000008D2B201E000F8012BD8
:10013000491EFBD270470022F6E710B513460A4667
:1001400004461946FFF7F0FF204610BD80EA010281
:1001500010B502F00043400022D04A001FD0010E2B
:1001600001EB1261C0F35600C2F3560240F40000E6
:1001700042F40002A0FB022000047F39140400D0E6
:10018000401C50EA124001D44000491EC2B20C0685
:1001900004EBD010401C4008802A02D003E000206D
:1001A00010BD20F00100002900DA0020184310BD26
:1001B00030B480EA010202F0004530F0004221F044
:1001C000004013D090B1C30DD40DC2F31601C0F39B
:1001D0001600E41A41F4000140F400027D3491421B
:1001E00001D3641C00E04900002C02DA30BC00207E
:1001F00070474FF400000023914201D3891A034352
:1002000040084FEA4101F7D151B1914202D14FF07C
:10021000004105E002D24FF0010101E06FF0010161
:1002200003EBC450284430BC00F025B8420005D090
:10023000C0F3C7525242914201DC0020704700EBEC
:10024000C150704796230022114600F01DB820F0DF
:100250000040C10DC0F3160040F400007F2901DA10
:1002600000207047962903DCC1F19601C840704711
:100270009639884070470029A8BF7047401C490044
:1002800008BF20F00100704710B4B0FA80FC00FAFB
:100290000CF050EA010404BF10BC704749B1CCF126
:1002A000200421FA04F411FA0CF118BF01212143B2
:1002B0000843A3EB0C01CB1D4FEA00614FEA10206D
:1002C00042BF002010BC704700EBC350104400290F
:1002D000A4BF10BC7047401C490008BF20F00100BB
:1002E00010BC7047064C074D06E0E06840F0010383
:1002F00094E8070098471034AC42F6D3FFF7FAFEB3
:100300005021000870210008FEE7704770B5040016
:1003100003D094F8200010B104E0012070BD204605
:1003200000F082F82068016821F00201016000F00D
:10033000F3F90546052604E000F0EEF9401B0A2813
:1003400011D8206840688007F6D42068016841F021
:100350000101016000F0E0F905460BE000F0DCF976
:10036000401B0A2806D9606A40F40030606284F8B5
:100370002060D2E720684068C007EFD0207E0128C7
:10038000206801683DD021F080010160607E012875
:100390002068016838D021F040010160A07E01286A
:1003A0002068016833D021F020010160E07E01283F
:1003B000206801682ED041F010010160207F0128E3
:1003C0002068016829D021F008010160607F0128C0
:1003D0002068016824D021F004010160D4E9020101
:1003E0000843D4E90412114308436168491E0843D5
:1003F0002168C86100206062012084F8200000208C
:1004000070BD41F08001C0E741F04001C5E741F017
:100410002001CAE721F01001CFE741F00801D4E73D
:1004200041F00401D9E7000010B586B00021009129
:1004300001910291039100681349884222D1134827
:10044000C16941F00071C161C16901F0007104919D
:10045000816941F00401816180690D4C00F0040064
:1004600004904FF4006000906946204600F05EF86A
:10047000A0140090022001900320039069462046BA
:1004800000F054F806B010BD0064004000100240B7
:100490000008014010B590F821100024022903D073
:1004A0000421816301243DE001680A6822F00E0204
:1004B0000A6001680A6822F001020A601A4A0168AB
:1004C000914201D1012121E0174A1432914201D118
:1004D00010211BE0144A2832914201D1891515E000
:1004E000114A3C32914201D189140FE00E4A503238
:1004F000914202D14FF4803108E00B4A64329142BC
:1005000002D14FF4801101E04FF08071064A083AA1
:100510005160012180F82110002180F82010416BEA
:1005200001B18847204610BD080002402DE9F84F70
:10053000DFF8B891002409F1040A0AF1040B2346FC
:100540000F270BF1040EC9E00125A5402A40AA425D
:100550007DD1674ED1F804C0ACEB0608B44532D06B
:1005600014DCBCF1030F3AD009DCBCF1000F2AD037
:10057000BCF1010F1CD0BCF1020F31D11DE0BCF168
:10058000110F17D0BCF1120F2AD119E0B8F5881F4E
:1005900019D006DCB8F5803F15D0B8F5801F1FD103
:1005A00011E0B8F5001F0ED0B8F5041F18D10AE00D
:1005B000CB6815E0CB681B1D12E0CB6808330FE059
:1005C000CB680C330CE08B682BB1012B4FF0080388
:1005D00003D0456104E0042302E0056100E000234C
:1005E000FF2A01D8064601E000F104064FEA84051F
:1005F00001D9A5F12005D6F8008007FA05FC28EA04
:100600000C0803FA05F548EA0508C6F800804D68AD
:10061000ED0062D5374DAE6946F00106AE61AD69B9
:1006200024F0030605F001050095334D06EB050C9B
:10063000DCF80850A607360F07FA06F825EA080581
:10064000DFF8B880404503D14FF0000817E044E0E0
:10065000DFF8AC80404502D14FF001080FE0DFF831
:10066000A480404502D14FF0020808E0DFF89880EE
:10067000404502D14FF0030801E04FF0040808FAAA
:1006800006F848EA0508CCF808804D68D9F80060FB
:10069000ED034D4601D5164300E096432E604D68AC
:1006A000DAF80060AD03554601D5164300E09643E5
:1006B0002E604D68DBF80060ED025D4601D5164303
:1006C00000E096432E604D68DEF80060AD0275468E
:1006D00001D5164300E096432E60641C0D682A463F
:1006E000E5407FF431AFBDE8F88F00000004014021
:1006F00000001110001002400000014000080140FD
:10070000000C014000100140001401400AB10161D9
:1007100070470904FBE7000001488068704700004B
:100720000C00002002488168027811448160704703
:100730000C000020074810B5016841F0100101606D
:10074000032000F075F8002000F006F800F024F80F
:10075000002010BD0020024070B50D4D04464FF43E
:100760007A712878B1FBF0F00A490968B1FBF0F022
:1007700000F0ECFA48B9102C07D200222146501E96
:1007800000F036F800206C6070BD012070BD0000E4
:100790000C000020080000200C4808B5816941F0D9
:1007A00001018161816901F001010091C16941F09C
:1007B0008051C161C06900F08050009004484168D8
:1007C00021F0E06141F00071416008BD001002407D
:1007D00000000140002809DB00F01F0201219140C8
:1007E0004009800000F1E020C0F8001170470000CF
:1007F000F0B40E4B1B680C46C3F30223C3F107058C
:10080000042D00D90425191D072901D2002300E079
:10081000DB1E012606FA05F1491E214099409E4043
:10082000761E16403143F0BC01F01FBC0CED00E019
:10083000064900F0070208684FF6FF03184040EA37
:100840000220034A10430860704700000CED00E0EE
:100850000000FA052DE9F0470F46050061D0434E30
:10086000306800F00700B84209D2306820F0070075
:1008700038433060306800F00700B84251D1286832
:100880003B4C810712D5400703D5606840F4E06017
:1008900060602878000703D5606840F460506060AD
:1008A0006068A96820F0F000084360602878C007FD
:1008B00028D06868012810D02168022810D0890744
:1008C00000292EDA616821F0030101436160FFF71E
:1008D00023FF804641F288390DE021688903EFE764
:1008E0008901EDE7FFF718FFA0EB0801494502D9A0
:1008F0000320BDE8F0876068696800F00C00B0EB89
:10090000810FEFD1306800F00700B8420BD9306892
:1009100020F0070038433060306800F00700B8422C
:1009200001D00120E5E72878400705D56068E9682F
:1009300020F4E060084360602878000706D560680E
:10094000296920F4605040EAC100606000F038F886
:100950006168084AC1F30311515CC8400649086048
:1009600006480068FFF7F8FE0020C2E700200240BA
:10097000001002403821000808000020100000206C
:100980000448054900684968044AC1F30221515CE2
:10099000C8407047080000200010024048210008AD
:1009A0000448054900684968044AC1F3C221515C02
:1009B000C84070470800002000100240482100088D
:1009C00012A185B00FC98DE80F0014A0144A006869
:1009D00004905168134801F00C03042B10D0082B2D
:1009E0000ED1C1F38343C9031DF803000AD5516832
:1009F00004AAC1F34041515C0A4A5043B0FBF1F0F4
:100A000005B0704708494843FAE7000002030405AF
:100A1000060708090A0B0C0D0E0F1010010200004A
:100A20000010024000127A0000093D002DE9F84F45
:100A3000040070D02078C04DC00749D06868C0F36A
:100A40008100012807D06868C0F38100022809D11D
:100A50006868C00306D52868800339D56068002817
:100A6000E7D035E06068B0F5803F0BD010B1B0F54D
:100A7000A02F11D0286820F480302860286820F446
:100A8000802002E0286840F480302860606890B1DF
:100A9000FFF742FE06460AE0286840F480202860FE
:100AA000F0E700BFFFF738FE801B642873D8286882
:100AB0008003F7D50CE0FFF72FFE064605E000BFE8
:100AC000FFF72AFE801B6428F0D828688003F7D43B
:100AD00020789A4E80074FF001094FF0000839D571
:100AE000686810F00C0F07D06868C0F38100022816
:100AF00009D16868C00306D42868800714D5206926
:100B0000012808D110E02069B0B1C6F80090FFF7C5
:100B100003FE074605E00AE1FFF7FEFDC01B0228C1
:100B2000C4D828688007F7D52868616920F0F800E4
:100B300040EAC10028600DE0C6F80080FFF7ECFD38
:100B4000074604E0FFF7E8FDC01B022823D8286809
:100B50008007F7D4207800072CD57948A169D9B14E
:100B6000C0F80090FFF7D8FD074604E0FFF7D4FD7A
:100B7000C01B02280FD8686A8007F7D571484FF468
:100B8000FA510068B0FBF1F0009000BF0098411EE0
:100B90000091FAD20EE080E0C0F80080FFF7BCFDC3
:100BA000074604E0FFF7B8FDC01B022875D8686A45
:100BB0008007F7D42078400760D5E8690027C00097
:100BC00008D4E86940F08050E861E869012700F046
:100BD000805000905C480168C90513D401688346C1
:100BE00041F480710160FFF797FD824606E000BF87
:100BF000FFF792FDA0EB0A0064284ED8DBF8000056
:100C0000C005F5D5E06801280AD008B1052813D041
:100C1000286A20F001002862286A20F0040002E01F
:100C2000286A40F001002862E06841F2883B98B1F0
:100C3000FFF772FD82460BE0286A40F0040028624C
:100C4000EEE700BFFFF768FDA0EB0A0159455AD84F
:100C5000286A8007F6D50CE0FFF75EFD824605E0C6
:100C6000FFF75AFDA0EB0A0159454CD8286A8007C6
:100C7000F6D41FB1E86920F08050E861E06988B3DC
:100C80006968C1F38101022944D00228C6F8608056
:100C900004D0FFF741FD044638E034E0FFF73CFDA7
:100CA000074604E0FFF738FDC01B02282BD8286850
:100CB0008001F7D4206AB0F5803F05D16868A1684B
:100CC00020F4003008436860D4E9080108436968EB
:100CD00021F4741108436860C6F86090FFF71CFDAA
:100CE000044606E025E000BFFFF716FD001B0228C2
:100CF00009D828688001F7D51BE000BFFFF70CFD7D
:100D0000001B022802D90320BDE8F88F2868800163
:100D1000F4D40EE00128F7D06868226A00F480312C
:100D2000914204D1616A00F47010884201D0012020
:100D3000EAE70020E8E7000000100240000042421D
:100D400080044242080000200070004010B5401EA0
:100D5000B0F1807F01D3012010BD4FF0E02460612D
:100D60000F21601701F081F90020A06107202061A8
:100D7000002010BD7047704770B590F83C20012AE4
:100D800026D0012480F83C40022280F83D200368F0
:100D90005A689D6822F070060A6832435A600D4B0B
:100DA00002689A4208D0B2F1804F05D00A4B9A42AD
:100DB00002D00A4B9A4204D1496825F080031943B6
:100DC000916080F83D40002180F83C10084670BDDD
:100DD000022070BD002C01400004004000080040CB
:100DE00010B5040003D094F83D0010B107E00120D5
:100DF00010BD002084F83C00204600F01FF80220BF
:100E000084F83D00211D206800F054FF012084F883
:100E1000460084F83E0084F83F0084F8400084F8DF
:100E2000410084F8420084F8430084F8440084F8C8
:100E3000450084F83D00002010BD000008B50068A2
:100E4000B0F1804F12D10A48C16941F00101C1617E
:100E5000C069002200F00100009011461C20FFF73D
:100E6000C7FCBDE808401C20FFF7B4BC08BD00006B
:100E70000010024090F83D10012901D00120704778
:100E8000022180F83D100168CA6842F00102CA6080
:100E900000680B49884208D0B0F1804F05D009495D
:100EA000884202D00849884204D1816801F00701D4
:100EB000062903D0016841F001010160002070475C
:100EC000002C0140000400400008004070B50446BA
:100ED00090F83C00012817D0012584F83C500220EE
:100EE00084F83D002068826822F0770222F47F4275
:100EF00082600868502830D00DDC20284DD005DCF9
:100F000098B310283BD148E0022070BD302844D06F
:100F1000402834D139E0602828D0702806D0B0F5B8
:100F2000805F2CD0B0F5005F29D10AE0CB68D1E911
:100F30000121206800F001FF2068816841F07701FD
:100F400009E0CB68D1E90121206800F0F6FE2068B5
:100F5000816841F48041816011E0CA684968206875
:100F600000F0A0FF5021206807E016E0CA68496839
:100F7000206800F0A8FF6021206800F0E8FE84F8F7
:100F80003D50002084F83C0070BDCA684968206864
:100F900000F088FF40212068EFE7226801461046F4
:100FA000EBE72DE9F0410D46040003D094F83D0035
:100FB00018B108E00120BDE8F081002084F83C0071
:100FC000204600F041F8022084F83D002068816846
:100FD00044F2070291438160211D206800F06AFEFF
:100FE000226890689169166A2B68AF69034340F2E2
:100FF0000330814341EA0721A868EF6908434FF6AF
:10100000FC418843E96840EA0720014328692F6AC8
:10101000000140EA0730084369686D6926F022063E
:1010200046EA0515294393602268906154F8460BFF
:101030000162012004F81F09E0752076E076207730
:10104000A0750020B7E7000000B585B00021009131
:101050000191029103910068114988421ED1114803
:10106000C16941F00201C161C16901F0020104914D
:10107000816941F0040181618069694600F00400E2
:101080000490C02000900848FFF750FA0022012188
:101090001D20FFF7ADFB1D20FFF79CFB05B000BD39
:1010A00000040040001002400008014070B590F8B4
:1010B0003E60044690F83F5090F8423090F843204C
:1010C000022021B1042914D0012E25D11EE0012EC9
:1010D00022D1012B20D184F83E0084F84200012265
:1010E0000021206800F01CFE2068C16841F0020168
:1010F0002FE0012D10D1012A0ED184F83F0084F891
:1011000043000421206800F00BFE1EE0012D03D1F6
:10111000012B01D1012A01D0012070BD84F83E00CD
:1011200084F83F0084F8420084F843000122002143
:10113000206800F0F5FD01220421206800F0F0FD98
:101140002068C16841F00201C1602068C16841F0B7
:101150000401C1602068016841F0010101600020C4
:1011600070BD000000680449884203D1034801684B
:10117000491C01607047000000040040040000208A
:1011800070B50446006801694FF00005C94389073E
:1011900015D4C168C943890711D4E91E0161012032
:1011A0002077206880698007204602D0FFF7DAFFA9
:1011B00004E000F0BDF8204600F04CF925772068E7
:1011C0000169C943490717D4C168C943490713D402
:1011D0006FF004010161022020772068806910F41B
:1011E000407F204602D0FFF7BDFF04E000F0A0F8EA
:1011F000204600F02FF9257720680169C9430907C7
:1012000016D4C168C943090712D46FF008010161FF
:10121000042020772068C0698007204602D0FFF7AD
:10122000A1FF04E000F084F8204600F013F92577D0
:1012300020680169C943C90617D4C168C943C906F2
:1012400013D46FF010010161082020772068C06975
:1012500010F4407F204602D0FFF784FF04E000F046
:1012600067F8204600F0F6F8257720680169C94341
:10127000C90708D1C168C943C90704D1891E0161E2
:10128000204600F04BF920680169C943090609D4DA
:10129000C168C943090605D46FF080010161204689
:1012A000FFF768FD20680169C943490609D4C16890
:1012B000C943490605D46FF040010161204600F0A2
:1012C00045F920680169C94389060BD4C168C9433F
:1012D000890607D46FF0200101612046BDE8704007
:1012E000FFF749BD70BD000000B585B00021009139
:1012F0000191029103910068B0F1804F11D10A4829
:10130000816941F0040181618069694600F004004F
:101310000490062000900220019003900348FFF7FC
:1013200005F905B000BD00000010024000080140B2
:10133000704770B5044690F83C000D4601280AD06D
:10134000012084F83C0042B1042A18D0082A2AD08F
:101350000C2A4DD139E0022070BD206800F000FD5C
:101360002068816941F0080181612068816921F06C
:1013700004018161206881692A69114311E02068B4
:1013800000F016FD2068816941F4006181612068E8
:10139000816921F480618161206881692A6941EA5B
:1013A0000221816124E0206800F02EFD2068C169DF
:1013B00041F00801C1612068C16921F00401C161E7
:1013C0002068C1692A69114311E0206800F048FDD6
:1013D0002068C16941F40061C1612068C16921F4DC
:1013E0008061C1612068C1692A6941EA0221C16145
:1013F000002084F83C0070BD10B5040003D094F8C0
:101400003D0010B107E0012010BD002084F83C0031
:10141000204600F01EF8022084F83D00211D2068BF
:1014200000F048FC012084F8460084F83E0084F86F
:101430003F0084F8400084F8410084F8420084F8BA
:10144000430084F8440084F8450084F83D000020FF
:1014500010BD70477047000010B50446022249B124
:10146000042912D008291CD094F84100012823D067
:10147000012010BD94F83E000128F9D184F83E20E7
:101480002068C26842F0020209E094F83F00012897
:10149000EED184F83F202068C26842F00402C260A6
:1014A0000EE094F840000128E2D184F84020206842
:1014B000C26842F00802F2E784F841200C2922D0E9
:1014C0000122206800F02CFC11492068884203D1D9
:1014D000426C42F4004242642068884208D0B0F175
:1014E000804F05D00B49884202D00B49884204D175
:1014F000816801F00701062903D0016841F001016C
:101500000160002010BD2068C26842F01002C6E7EA
:10151000002C014000040040000800400068B0F1C9
:10152000804F0FD108484188491C41808188491C5F
:1015300081804189491C41810188491C01800189C0
:10154000491C01817047000062010020704770470C
:1015500070B5026804461068D168536910F00F0F27
:1015600052D003F0010501F490762E435FD0C207FC
:1015700005D0CA0503D5E26B42F00102E2634207DF
:1015800005D5DA0703D0E26B42F00202E26382077C
:1015900005D5DA0703D0E26B42F00402E2630207EA
:1015A00007D501F020022A4303D0E26B42F0080283
:1015B000E263E26B002A33D0800604D5880602D5A8
:1015C000204600F0A8FC20684069E16BC0F3801061
:1015D000090700D428B3204600F08FFC2068416939
:1015E00049061AD5416921F040014161606BA0B103
:1015F0002D494163606BFEF74DFF002810D0606BF2
:10160000416BBDE870400847830610D58B060ED5A8
:101610002046BDE8704000F07EBC2046FFF797FFF3
:1016200070BD2046FFF793FF0020E06370BD030606
:101630002BD50B0629D594F839002128F6D1A068BE
:10164000B0F5805F01D12069B0B1206A411C2162F0
:10165000216800784860E08C401E0004000CE084A3
:10166000E4D12068C16821F08001C1602068C168B0
:1016700041F04001C16070BD206A0088C0F30800DD
:101680005060206A801C2062E5E74006F3D54806DA
:10169000F1D5D168204621F04001D160202184F8A5
:1016A000391000F0DBF870BDEB1E000870B50400C7
:1016B00004D094F83900002510B106E0012070BD77
:1016C00084F83850204600F023F8242084F83900AC
:1016D0002068C16821F40051C160204600F062FC1E
:1016E0002068016921F4904101612068416921F07D
:1016F0002A0141612068C16841F40051C160E5637D
:10170000202084F8390084F83A00002070BD0000E1
:1017100030B585B0002400940194029403940068CD
:101720001B49884232D11B48816941F48041816163
:10173000816901F480410491816941F0080181616E
:101740008069154D00F008000490402000900220B0
:1017500001900320039069462846FEF7E7FE8020AB
:10176000CDE90004694628460294FEF7DFFE0B48E7
:10177000416841F0E06141F0040141600022022132
:101780002520FFF735F82520FFF724F805B030BDF8
:101790000038014000100240000C014000000140F0
:1017A00090F83A30202B22D1F9B1F2B190F83830CC
:1017B000012B1CD081628285C2850021C163222257
:1017C00080F83A2080F838100168CA6842F48072C4
:1017D000CA6001684A6942F001024A610068C16852
:1017E00041F02001C16000207047012070470220B5
:1017F0007047000030B4174B016800221648994228
:1018000025D101248470017AA0F1520329B106E0A8
:101810005D18491C85F82620C9B21E29F8D31B780B
:10182000532B08D0462B08D00B4A017A2C3A8B5404
:10183000491C017203E00272F6E702724472064923
:101840000122523930BCA1F14C00FFF7A9BF8270D0
:1018500030BC7047003801406E0100207047FEE741
:101860000948084901601021416000218160C16080
:1018700001614161017641768176C17601774177D8
:10188000FEF744BD00640040180000202DE9F0433D
:1018900085B0002421480094019402940394816946
:1018A00041F020018161816901F020010491816989
:1018B00041F004018161816901F0040104918169B1
:1018C00041F0080181618069DFF8548000F0080070
:1018D0004FF440450490002229464046FEF716FF8B
:1018E000DFF840904FF40047002239464846FEF7A3
:1018F0000DFF0095022601250396CDE901546946A6
:101900004046FEF713FE00970396CDE90154694661
:101910004846FEF70BFE05B0BDE8F083001002401C
:10192000000C01400008014010B58EB0002407945F
:10193000089409940A940B941C2168460C94FEF7B1
:10194000FAFB19484FF0804101604921C0E90114B8
:1019500040F2E731C0E903148461FFF741FA4FF424
:101960008050079007A91048FFF7B0FA0E48FFF71C
:1019700043FD0B940BA90C480C94FFF7FDF9602074
:10198000CDE9000402940422694607480494FFF755
:10199000D0FC082269460448FFF7CBFC0248FFF759
:1019A000A3FC0EB010BD00004000002010B58CB0AC
:1019B00024216846FEF7BFFB00241348099411490F
:1019C0000A94C0E900144FF6FF71C0E902410461B6
:1019D00084610320CDE900040120CDE902040A213D
:1019E0000491CDE90540CDE9074169460648FFF776
:1019F000D8FA099409A904480A94FFF7BDF90CB074
:101A000010BD00000004004088000020FEE7704781
:101A10007047000002480021016001718160704739
:101A200010010020064800210171C170C171417090
:101A300001708171417181704172017270470000C3
:101A40006E010020044800210122018041800271C2
:101A50000181C160017470479C0100202DE9F05F95
:101A60000E463849154607460B683648DFF8D8A0B9
:101A7000DFF8D8B0002424304FF47A726FF00A09EE
:101A80004FF00108012B32D0096811292DD185F8BA
:101A9000048003684FF6FF71CB1A2B603B8893429A
:101AA00023D301602868FEF7CDFB4946FEF7BEFB55
:101AB0005146FEF74BFB5946FEF77AFBA860244DD2
:101AC0002868FEF7BFFB4946FEF7B0FB5146FEF71C
:101AD0003DFB5946FEF76CFBFEF7B9FB1D4908605C
:101AE0002C603C80347086F80180BDE8F09F2C713A
:101AF0000168296039889142F7D304602868FEF7AD
:101B0000A1FB4946FEF792FB5146FEF71FFB5946E3
:101B1000FEF74EFBA8600E4D2868FEF793FB494682
:101B2000FEF784FB5146FEF711FB5946FEF740FBDA
:101B3000FEF78DFB074908602C603C8086F800802A
:101B40007470D2E700040040000070420000404280
:101B500004000020000000200748002101604160CF
:101B60008160C16001614161044981610449C161D1
:101B70000449016270470000780100206F12033DA4
:101B800017B7513A17B7513810B504460F48FFF749
:101B900071F904210D48FFF75FFC08210B48FFF79E
:101BA0005BFC0B48016809484830FFF77FFA094899
:101BB000016806484830FFF779FA214603480122B8
:101BC000BDE810409030FFF7EBBD00004000002062
:101BD000302100083421000804480021C1808180A0
:101BE0000181418141800180704700006201002035
:101BF00002490020A1F84400704700001C010020A9
:101C00007047FEF78FBD30B58FB028216846FEF7CC
:101C100092FA14210AA8FEF78EFA01210804CDE9F0
:101C200000100024029402250491CDE907504FF4DE
:101C3000E01009906846FEF7F9FE0F20CDE90A058D
:101C40006802CDE90C4002210AA80E94FEF702FEBC
:101C50000FB030BD0D48016841F0010101604168DD
:101C60000B4A1140416001680A4A11400160016855
:101C700021F480210160416821F4FE0141604FF4AC
:101C80001F0181600449C0030860704700100240D2
:101C90000000FFF8FFFFF6FE08ED00E00148FFF747
:101CA0006FBA0000400000200148FFF769BA000049
:101CB00088000020F0B50268164B174C174D4FF006
:101CC0008047984205D0B84203D0A04201D0A84234
:101CD00003D122F070064A683243984205D0B842D8
:101CE00003D0A04201D0A84203D122F44074CA68B4
:101CF00022434C6922F08002224302608A68C26259
:101D00000A688262984201D1096901630121416137
:101D1000F0BD0000002C014000040040000800401D
:101D200010B501F01F030121046A99408C4304623D
:101D3000016A9A401143016210BD10B5846842EAFD
:101D4000032224F47F440A432243826010BD826848
:101D500022F070020A4342F00701816070470000E0
:101D600030B5026A22F001020262026A43688469A5
:101D700024F073050C682C4322F002058A682A437C
:101D80000A4DA8420BD122F00805CA6823F440731B
:101D90002A434D6922F004021D438B692B434360A3
:101DA000846149684163026230BD0000002C01403B
:101DB00030B5026A22F010020262026A4368846946
:101DC0000D6824F4E64444EA05248D6822F02002DC
:101DD00042EA05120B4DA8420ED1CD6822F08002D6
:101DE00042EA05124D6923F4406343EA85038D6995
:101DF00022F0400243EA85034360846149688163BD
:101E0000026230BD002C014030B5026A22F48072BB
:101E10000262036A4268C46923F4007324F0730504
:101E20000C682C438D6843EA05230C4DA8420ED163
:101E3000CD6823F4006343EA05234D6922F4405240
:101E400042EA05128D6923F4806342EA051242607A
:101E5000C4614968C163036230BD0000002C0140C9
:101E600030B5026A22F480520262046A4268C36991
:101E70000D6823F4E64343EA05238D6824F40054F7
:101E800044EA0534064DA84204D14D6922F480424B
:101E900042EA85124260C36149680164046230BD50
:101EA000002C014010B5036A046A24F001040462A6
:101EB000846924F0F00444EA021423F00A020A437D
:101EC0008461026210BD10B5036A23F0100303623F
:101ED0008369046A23F4704343EA023224F0A003C6
:101EE00043EA01118261016210BD10B5406A002110
:101EF000C185C184FFF72BFB10BD0168CA6822F4BD
:101F00009072CA6001684A6922F001024A61202188
:101F100080F83A10704710B590F83A10222901D095
:101F2000022010BD82684FF480539A4201D10169AA
:101F300021B1816A9A421BD04AB10AE00268816AE3
:101F40005268C2F308020A80816A891C08E00269AB
:101F500072B10268526802F07F020A70816A491CFD
:101F60008162C18D491E0904090CC18503D016E0A8
:101F700002685268F1E70168CA6822F02002CA606C
:101F80000168CA6822F48072CA6001684A6922F056
:101F900001024A61202180F83A10FFF72BFC002053
:101FA00010BD000070B5044600680169E26821F4C4
:101FB0004051114301612169A068084361690843E8
:101FC0002168CA6841F20C639A430243CA602068E0
:101FD0004169A26921F44071114341611E492068A1
:101FE000884202D1FEF7DCFC01E0FEF7C9FC00EB01
:101FF000C00101EB0012606864218000B2FBF0F3C5
:10200000B3FBF1F36FF018067343B2FBF0F5B2FBCC
:10201000F0F605EB8305322303EB0515B5FBF1F56F
:10202000B6FBF1F605F0F00505EB0615B2FBF0F690
:10203000B2FBF0F0B0FBF1F06FF01802504306EB8A
:10204000800003EB0010B0FBF1F0216800F00F00FE
:102050002844886070BD0000003801400148FFF747
:1020600077BA0000D0000020FEE70907090E00281B
:1020700004DB00F1E02080F80014704700F00F004E
:1020800000F1E02080F8141D704702E008C8121F1C
:1020900008C1002AFAD170477047002001E001C151
:1020A000121F002AFBD17047FEF744FBFFF7ABFD80
:1020B000FFF7ECFBFFF738FCFFF778FCFFF7D0FBEE
:1020C0001A4819490C2201604FF4E13141600021A6
:1020D0008160C160C0E904128161C161FFF7E6FA65
:1020E000FFF798FCFFF7AEFCFFF736FDFFF780FD2A
:1020F000FFF798FCFFF770FD0C484C30FFF744FDEC
:102100000A484C30FFF740FD084C4FF4C875903C2E
:1021100020688563054A403202F15E01A1F10C009E
:10212000FFF79CFCF4E7000000380140D0000020DD
:10213000000000000400000000000000000000009B
:10214000010203040607080900000000010203045D
:102150007021000800000020180000008A200008FC
:102160008821000818000020980500009A20000827
:10217000000000000000000000A24A04010000006E
:08218000100000000000000047
:04000005080000ED02
:00000001FF
