:020000040800F2
:10000000B8050020050100081F2000086D1E00082B
:100010001D200008AD0800086D2900080000000040
:10002000000000000000000000000000052500089E
:10003000AF08000800000000212000080725000884
:100040001F0100081F0100081F0100081F01000810
:100050001F0100081F0100081F0100081F01000800
:100060001F0100081F0100081F0100081F010008F0
:100070001F0100081F0100081F0100081F010008E0
:100080001F0100081F0100081F0100081F010008D0
:100090001F0100081F0100081F0100081F010008C0
:1000A0001F0100081F0100081F0100081F010008B0
:1000B000A1250008AD2500081F0100081F01000848
:1000C0001F0100081F0100081F0100081F01000890
:1000D0001F010008612900081F0100081F01000816
:1000E0001F0100081F0100081F010008DFF810D0E1
:1000F00000F0CAFB00480047252D0008AFF3008040
:10010000B80500200648804706480047FEE7FEE79E
:10011000FEE7FEE7FEE7FEE7FEE7FEE7FEE7FEE7B7
:1001200059250008ED000008202A04DB203A21FAB6
:1001300002F00021704721FA02F3D040C2F1200200
:100140009140084319467047D2B201E000F8012BF4
:10015000491EFBD270470022F6E710B513460A4647
:1001600004461946FFF7F0FF204610BDF0B480EAC0
:100170000102D40F4200B2EB410F02D20246084600
:1001800011464A0042D0C30DDDB2C1F3C752AD1AC9
:10019000202D35DAC1F3160141F4000204B15242B8
:1001A000C5F1200602FA06F12A411044B3EBD05FF4
:1001B00023D0C4B1012DA0EBC35009DCF0BC4FF03B
:1001C000004202EAC352DBB200F5000000F0D1BAEF
:1001D000400000F1807000EBC350A0F1807040EA55
:1001E000D170490009E0490841EAC071A0EBC35051
:1001F00000F50000400800EBC350F0BC00F0B0BABE
:100200006142012202EB4101001BF6E7F0BC70479E
:1002100081F00041AAE780F00040A7E780EA0102F0
:1002200010B502F00043400022D04A001FD0010E5A
:1002300001EB1261C0F35600C2F3560240F4000015
:1002400042F40002A0FB022000047F39140400D015
:10025000401C50EA124001D44000491EC2B20C06B4
:1002600004EBD010401C4008802A02D003E000209C
:1002700010BD20F00100002900DA0020184310BD55
:1002800030B480EA010202F0004530F0004221F073
:10029000004013D090B1C30DD40DC2F31601C0F3CA
:1002A0001600E41A41F4000140F400027D3491424A
:1002B00001D3641C00E04900002C02DA30BC0020AD
:1002C00070474FF400000023914201D3891A034381
:1002D00040084FEA4101F7D151B1914202D14FF0AC
:1002E000004105E002D24FF0010101E06FF0010191
:1002F00003EBC450284430BC00F032BA420005D0B1
:10030000C0F3C7525242914201DC0020704700EB1B
:10031000C15070472DE9FE4F804681EA0300C00FAF
:100320000C46009021F0004123F00045B8EB02009C
:10033000A94105D24046214690461C460B4602463E
:1003400023F00040104347D0270DC7F30A00C3F342
:100350000A510290401A019040286BDAC3F313004F
:1003600040F4801B0098924620B10023D2EB030A90
:1003700063EB0B0B01985946C0F14002504600F068
:10038000CEF906460D4650465946019A00F0D6F978
:1003900010EB08006141002487EA115284EAE773F8
:1003A0001A4340D0009A62B3019A012A4FEA0752D9
:1003B00015DC001B61EB02014FF0004202EA07521C
:1003C000CDE90042001C41F5801132462B4600F079
:1003D0000DFA03B0BDE8F08F40462146F9E7001B57
:1003E00061EB0201001C41F5801300185B412018ED
:1003F000A2F5001747EB030140EAD570B6196D412D
:1004000011E06D084FEA360645EAC0754FEA07521B
:10041000001B61EB0201001C41F5801149084FEA05
:1004200030000019514132462B4603B0BDE8F04F71
:1004300000F0CDB90098012240000023D0EB020269
:1004400063EBE073009821464FEAE074B8EB0000DC
:1004500061EB0401E9E783F000435BE781F00041D1
:1004600058E72DE9FE4F81EA030404F0004421F02F
:10047000004100944FF0000B23F0004350EA0104C8
:100480005ED052EA03045BD0C3F30A54C1F30A55A9
:100490002C44A4F2F3340194A0FB0254C1F31301E1
:1004A00041F48011C3F3130343F4801301FB0244AE
:1004B00000FB034E840A970A44EA815447EA8357B3
:1004C000A4FB076802958D0A05FB07854FEA932C6C
:1004D00004FB0C542705029D4FEA065847EA1637DD
:1004E000B5EB08056EEB070C870E920E47EA8117F5
:1004F00042EA8312A7FB0201B6EB0B0164EB000496
:100500002B0D43EA0C335E1844EB1C50DA4651467F
:10051000E7FB0201C5F313044FEA0B3343EA14531C
:100520004FEA0432019C43EA0603A4F10C0402944E
:10053000009CCDE900B400F059F903B0BDE8F08F9C
:1005400000200146F9E72DE9F04D81EA030404F0AB
:10055000004B21F0004514464FF0000A23F0004103
:1005600050EA050220D054EA01021DD0C5F30A5713
:100570000246C5F31303C1F31300C1F30A5640F456
:10058000801543F48013A7EB0608101BD64608F22B
:10059000FD3873EB050002D308F1010801E0921861
:1005A0005B41B8F1000F03DA00200146BDE8F08D91
:1005B00000204FF48011064684460EE0171B73EBB3
:1005C000050705D3121B63EB050306434CEA010C38
:1005D00049084FEA300092185B4150EA0107EDD11B
:1005E00052EA030012D082EA040083EA05010843BC
:1005F00005D0101BAB4106D20122002306E00022E9
:100600004FF0004302E06FF0010253101AEB0600B6
:100610004CEB085110EB0A0041EB0B01BDE8F04D2B
:1006200000F0D5B8C10F80EAE0700844CA079623ED
:10063000002100F09EB896230022114600F099B8E0
:1006400000F0004220F00040C10DC0F3160040F45D
:1006500000007F2901DA00207047962903DCC1F1F0
:100660009601C84001E096398840002AF4D0404203
:10067000704720F00040C10DC0F3160040F40000A8
:100680007F2901DA00207047962903DCC1F1960129
:10069000C8407047963988407047C1F30A5210B578
:1006A000C1F3130140F2FF3341F480119A4201DAA1
:1006B000002010BD40F233439A42A2F2334203DCE1
:1006C0005242FFF731FD10BD904010BD00F00042D6
:1006D00030F000400AD0C10D01F56071C0F3160082
:1006E00042EA0151C2084007114370470020014609
:1006F000704730B50B46014600202022012409E056
:1007000021FA02F59D4205D303FA02F5491B04FACA
:1007100002F52844151EA2F10102F1DC30BD202AA9
:1007200004DB203A00FA02F1002070479140C2F148
:10073000200320FA03F3194390407047202A06DB78
:10074000CB17203A41FA02F043EAE07306E041FA9F
:1007500002F3D040C2F1200291400843194670478D
:100760000029A8BF7047401C490008BF20F00100C5
:10077000704710B4B0FA80FC00FA0CF050EA0104A3
:1007800004BF10BC704749B1CCF1200421FA04F435
:1007900011FA0CF118BF012121430843A3EB0C010E
:1007A000CB1D4FEA00614FEA102042BF002010BC71
:1007B000704700EBC35010440029A4BF10BC704721
:1007C000401C490008BF20F0010010BC704710B564
:1007D000141E73F1000408DA401C41F10001921864
:1007E0005B411A4301D120F0010010BD2DE9F04D0D
:1007F00092469B4611B1B1FA81F202E0B0FA80F262
:1008000020329046FFF78BFF04460F4640EA0A006D
:1008100041EA0B0153465A46084313D0114653EAA6
:10082000010019D0C8F140025046FFF77DFC054693
:100830000E46504659464246FFF771FF084305D021
:10084000012004E020463946BDE8F08D0020054334
:1008500046EAE0762C4337430A986305E40AA0EBA6
:1008600008000022FD0A44EA47540A3002D500205D
:100870000146E9E7010510196941DDE9084500195C
:100880006941BDE8F04DA2E7064C074D06E0E0687F
:1008900040F0010394E8070098471034AC42F6D3C7
:1008A000FFF728FC702E0008902E0008FEE7704726
:1008B00070B5040003D094F8200010B104E00120CA
:1008C00070BD204600F082F82068016821F0020126
:1008D000016000F005FA0546052604E000F000FA84
:1008E000401B0A2811D8206840688007F6D4206889
:1008F000016841F00101016000F0F2F905460BE0EA
:1009000000F0EEF9401B0A2806D9606A40F4003076
:10091000606284F82060D2E720684068C007EFD0AA
:10092000207E0128206801683DD021F0800101600F
:10093000607E01282068016838D021F04001016004
:10094000A07E01282068016833D021F020010160D9
:10095000E07E0128206801682ED041F0100101607E
:10096000207F01282068016829D021F0080101605A
:10097000607F01282068016824D021F00401016013
:10098000D4E902010843D4E9041211430843616821
:10099000491E08432168C86100206062012084F874
:1009A0002000002070BD41F08001C0E741F040010F
:1009B000C5E741F02001CAE721F01001CFE741F07F
:1009C0000801D4E741F00401D9E7000010B586B072
:1009D000002100910191029103910068134988421E
:1009E00022D11348C16941F00071C161C16901F0B0
:1009F00000710491816941F00401816180690D4CAD
:100A000000F0040004904FF4006000906946204616
:100A100000F070F8A01400900220019003200390D1
:100A20006946204600F066F806B010BD006400403C
:100A3000001002400008014010B590F82110002479
:100A4000022903D00421816301243DE001680A6882
:100A500022F00E020A6001680A6822F001020A60B0
:100A60001A4A0168914201D1012121E0174A14324A
:100A7000914201D110211BE0144A2832914201D148
:100A8000891515E0114A3C32914201D189140FE0D9
:100A90000E4A5032914202D14FF4803108E00B4AA5
:100AA0006432914202D14FF4801101E04FF0807125
:100AB000064A083A5160012180F82110002180F88F
:100AC0002010416B01B18847204610BD080002404C
:100AD00070B5044600F004F90546601C02D00448D5
:100AE0000078044400F0FCF8401BA042FAD370BD2B
:100AF0000C0000202DE9F84FDFF8B891002409F12F
:100B0000040A0AF1040B23460F270BF1040EC9E077
:100B10000125A5402A40AA427DD1674ED1F804C0E4
:100B2000ACEB0608B44532D014DCBCF1030F3AD06C
:100B300009DCBCF1000F2AD0BCF1010F1CD0BCF1C4
:100B4000020F31D11DE0BCF1110F17D0BCF1120F13
:100B50002AD119E0B8F5881F19D006DCB8F5803F16
:100B600015D0B8F5801F1FD111E0B8F5001F0ED0C9
:100B7000B8F5041F18D10AE0CB6815E0CB681B1D3F
:100B800012E0CB6808330FE0CB680C330CE08B68C5
:100B90002BB1012B4FF0080303D0456104E004237F
:100BA00002E0056100E00023FF2A01D8064601E0CB
:100BB00000F104064FEA840501D9A5F12005D6F815
:100BC000008007FA05FC28EA0C0803FA05F548EA54
:100BD0000508C6F800804D68ED0062D5374DAE6956
:100BE00046F00106AE61AD6924F0030605F001058B
:100BF0000095334D06EB050CDCF80850A607360FC0
:100C000007FA06F825EA0805DFF8B880404503D161
:100C10004FF0000817E044E0DFF8AC80404502D117
:100C20004FF001080FE0DFF8A480404502D14FF0FB
:100C3000020808E0DFF89880404502D14FF0030831
:100C400001E04FF0040808FA06F848EA0508CCF875
:100C500008804D68D9F80060ED034D4601D5164374
:100C600000E096432E604D68DAF80060AD0355460B
:100C700001D5164300E096432E604D68DBF8006016
:100C8000ED025D4601D5164300E096432E604D68A7
:100C9000DEF80060AD02754601D5164300E09643CC
:100CA0002E60641C0D682A46E5407FF431AFBDE834
:100CB000F88F0000000401400000111000100240F5
:100CC0000000014000080140000C014000100140FC
:100CD000001401400AB1016170470904FBE70000FC
:100CE00001488068704700000C00002002488168BD
:100CF00002781144816070470C000020074810B54D
:100D0000016841F010010160032000F079F8002033
:100D100000F006F800F024F8002010BD002002408A
:100D200070B50D4D04464FF47A712878B1FBF0F0A0
:100D30000A490968B1FBF0F000F0F0FA48B9102C4C
:100D400007D200222146501E00F03AF800206C60C5
:100D500070BD012070BD00000C00002008000020C4
:100D60000E4808B5816941F001018161816901F096
:100D700001010091C16941F08051C161C06900F079
:100D800080500090042000F03BF80548416821F0B5
:100D9000E06141F00071416008BD000000100240B8
:100DA00000000140002809DB00F01F0201219140F2
:100DB0004009800000F1E020C0F8001170470000F9
:100DC000F0B40E4B1B680C46C3F30223C3F10705B6
:100DD000042D00D90425191D072901D2002300E0A4
:100DE000DB1E012606FA05F1491E214099409E406E
:100DF000761E16403143F0BC01F0CEBD0CED00E094
:100E0000064900F0070208684FF6FF03184040EA61
:100E10000220034A10430860704700000CED00E018
:100E20000000FA052DE9F0470F46050061D0434E5A
:100E3000306800F00700B84209D2306820F007009F
:100E400038433060306800F00700B84251D128685C
:100E50003B4C810712D5400703D5606840F4E06041
:100E600060602878000703D5606840F460506060D7
:100E70006068A96820F0F000084360602878C00727
:100E800028D06868012810D02168022810D089076E
:100E900000292EDA616821F0030101436160FFF748
:100EA0001FFF804641F288390DE021688903EFE792
:100EB0008901EDE7FFF714FFA0EB0801494502D9CE
:100EC0000320BDE8F0876068696800F00C00B0EBB3
:100ED000810FEFD1306800F00700B8420BD93068BD
:100EE00020F0070038433060306800F00700B84257
:100EF00001D00120E5E72878400705D56068E9685A
:100F000020F4E060084360602878000706D5606838
:100F1000296920F4605040EAC100606000F038F8B0
:100F20006168084AC1F30311515CC8400649086072
:100F300006480068FFF7F4FE0020C2E700200240E8
:100F400000100240582E0008080000201000002069
:100F50000448054900684968044AC1F30221515C0C
:100F6000C84070470800002000100240682E0008AA
:100F70000448054900684968044AC1F3C221515C2C
:100F8000C84070470800002000100240682E00088A
:100F900012A185B00FC98DE80F0014A0144A006893
:100FA00004905168134801F00C03042B10D0082B57
:100FB0000ED1C1F38343C9031DF803000AD551685C
:100FC00004AAC1F34041515C0A4A5043B0FBF1F01E
:100FD00005B0704708494843FAE7000002030405DA
:100FE000060708090A0B0C0D0E0F10100102000075
:100FF0000010024000127A0000093D002DE9F84F70
:10100000040070D02078C04DC00749D06868C0F394
:101010008100012807D06868C0F38100022809D147
:101020006868C00306D52868800339D56068002841
:10103000E7D035E06068B0F5803F0BD010B1B0F577
:10104000A02F11D0286820F480302860286820F470
:10105000802002E0286840F480302860606890B109
:10106000FFF73EFE06460AE0286840F4802028602C
:10107000F0E700BFFFF734FE801B642873D82868B0
:101080008003F7D50CE0FFF72BFE064605E000BF16
:10109000FFF726FE801B6428F0D828688003F7D469
:1010A00020789A4E80074FF001094FF0000839D59B
:1010B000686810F00C0F07D06868C0F38100022840
:1010C00009D16868C00306D42868800714D5206950
:1010D000012808D110E02069B0B1C6F80090FFF7F0
:1010E000FFFD074605E00AE1FFF7FAFDC01B0228F5
:1010F000C4D828688007F7D52868616920F0F8000F
:1011000040EAC10028600DE0C6F80080FFF7E8FD66
:10111000074604E0FFF7E4FDC01B022823D8286837
:101120008007F7D4207800072CD57948A169D9B178
:10113000C0F80090FFF7D4FD074604E0FFF7D0FDAC
:10114000C01B02280FD8686A8007F7D571484FF492
:10115000FA510068B0FBF1F0009000BF0098411E0A
:101160000091FAD20EE080E0C0F80080FFF7B8FDF1
:10117000074604E0FFF7B4FDC01B022875D8686A73
:101180008007F7D42078400760D5E8690027C000C1
:1011900008D4E86940F08050E861E869012700F070
:1011A000805000905C480168C90513D401688346EB
:1011B00041F480710160FFF793FD824606E000BFB5
:1011C000FFF78EFDA0EB0A0064284ED8DBF8000084
:1011D000C005F5D5E06801280AD008B1052813D06C
:1011E000286A20F001002862286A20F0040002E04A
:1011F000286A40F001002862E06841F2883B98B11B
:10120000FFF76EFD82460BE0286A40F0040028627A
:10121000EEE700BFFFF764FDA0EB0A0159455AD87D
:10122000286A8007F6D50CE0FFF75AFD824605E0F4
:10123000FFF756FDA0EB0A0159454CD8286A8007F4
:10124000F6D41FB1E86920F08050E861E06988B306
:101250006968C1F38101022944D00228C6F8608080
:1012600004D0FFF73DFD044638E034E0FFF738FDD9
:10127000074604E0FFF734FDC01B02282BD828687E
:101280008001F7D4206AB0F5803F05D16868A16875
:1012900020F4003008436860D4E908010843696815
:1012A00021F4741108436860C6F86090FFF718FDD8
:1012B000044606E025E000BFFFF712FD001B0228F0
:1012C00009D828688001F7D51BE000BFFFF708FDAB
:1012D000001B022802D90320BDE8F88F286880018E
:1012E000F4D40EE00128F7D06868226A00F4803157
:1012F000914204D1616A00F47010884201D001204B
:10130000EAE70020E8E70000001002400000424247
:1013100080044242080000200070004010B5401ECA
:10132000B0F1807F01D3012010BD4FF0E024606157
:101330000F21601701F030FB0020A0610720206121
:10134000002010BD7047704770B590F83C20012A0E
:1013500026D0012480F83C40022280F83D2003681A
:101360005A689D6822F070060A6832435A600D4B35
:1013700002689A4208D0B2F1804F05D00A4B9A42D7
:1013800002D00A4B9A4204D1496825F080031943E0
:10139000916080F83D40002180F83C10084670BD07
:1013A000022070BD002C01400004004000080040F5
:1013B00010B5040003D094F83D0010B107E00120FF
:1013C00010BD002084F83C00204600F01FF80220E9
:1013D00084F83D00211D206801F0EEF8012084F81A
:1013E000460084F83E0084F83F0084F8400084F80A
:1013F000410084F8420084F8430084F8440084F8F3
:10140000450084F83D00002010BD000008B50068CC
:10141000B0F1804F12D10A48C16941F00101C161A8
:10142000C069002200F00100009011461C20FFF767
:10143000C7FCBDE808401C20FFF7B4BC08BD000095
:101440000010024090F83D10012901D001207047A2
:10145000022180F83D100168CA6842F00102CA60AA
:1014600000680B49884208D0B0F1804F05D0094987
:10147000884202D00849884204D1816801F00701FE
:10148000062903D0016841F0010101600020704786
:10149000002C0140000400400008004070B50446E4
:1014A00090F83C00012817D0012584F83C50022018
:1014B00084F83D002068826822F0770222F47F429F
:1014C00082600868502830D00DDC20284DD005DC23
:1014D00098B310283BD148E0022070BD302844D09A
:1014E000402834D139E0602828D0702806D0B0F5E3
:1014F000805F2CD0B0F5005F29D10AE0CB68D1E93C
:101500000121206801F09BF82068816841F0770193
:1015100009E0CB68D1E90121206801F090F820684A
:10152000816841F48041816011E0CA68496820689F
:1015300001F03AF95021206807E016E0CA684968CE
:10154000206801F042F96021206801F082F884F8F7
:101550003D50002084F83C0070BDCA68496820688E
:1015600001F022F940212068EFE722680146104689
:10157000EBE72DE9F0410D46040003D094F83D005F
:1015800018B108E00120BDE8F081002084F83C009B
:10159000204600F041F8022084F83D002068816870
:1015A00044F2070291438160211D206801F004F894
:1015B000226890689169166A2B68AF69034340F20C
:1015C0000330814341EA0721A868EF6908434FF6D9
:1015D000FC418843E96840EA0720014328692F6AF3
:1015E000000140EA0730084369686D6926F0220669
:1015F00046EA0515294393602268906154F8460B2A
:101600000162012004F81F09E0752076E07620775A
:10161000A0750020B7E7000000B585B0002100915B
:101620000191029103910068114988421ED111482D
:10163000C16941F00201C161C16901F00201049177
:10164000816941F0040181618069694600F004000C
:101650000490C02000900848FFF74CFA0122114680
:101660001D20FFF7ADFB1D20FFF79CFB05B000BD63
:1016700000040040001002400008014070B590F8DE
:101680003E60044690F83F5090F8423090F8432076
:10169000022021B1042914D0012E25D11EE0012EF3
:1016A00022D1012B20D184F83E0084F8420001228F
:1016B0000021206800F0B6FF2068C16841F00201F7
:1016C0002FE0012D10D1012A0ED184F83F0084F8BB
:1016D00043000421206800F0A5FF1EE0012D03D186
:1016E000012B01D1012A01D0012070BD84F83E00F8
:1016F00084F83F0084F8420084F84300012200216E
:10170000206800F08FFF01220421206800F08AFF8A
:101710002068C16841F00201C1602068C16841F0E1
:101720000401C1602068016841F0010101600020EE
:1017300070BD000000680449884203D10348016875
:10174000491C0160704700000004004004000020B4
:1017500070B50446006801694FF00005C943890768
:1017600015D4C168C943890711D4E91E016101205C
:101770002077206880698007204602D0FFF7DAFFD3
:1017800004E000F0BDF8204600F04CF92577206811
:101790000169C943490717D4C168C943490713D42C
:1017A0006FF004010161022020772068806910F445
:1017B000407F204602D0FFF7BDFF04E000F0A0F814
:1017C000204600F02FF9257720680169C9430907F1
:1017D00016D4C168C943090712D46FF0080101612A
:1017E000042020772068C0698007204602D0FFF7D8
:1017F000A1FF04E000F084F8204600F013F92577FB
:1018000020680169C943C90617D4C168C943C9061C
:1018100013D46FF010010161082020772068C0699F
:1018200010F4407F204602D0FFF784FF04E000F070
:1018300067F8204600F0F6F8257720680169C9436B
:10184000C90708D1C168C943C90704D1891E01610C
:10185000204600F04BF920680169C943090609D404
:10186000C168C943090605D46FF0800101612046B3
:10187000FFF768FD20680169C943490609D4C168BA
:10188000C943490605D46FF040010161204600F0CC
:1018900045F920680169C94389060BD4C168C94369
:1018A000890607D46FF0200101612046BDE8704031
:1018B000FFF749BD70BD000000B585B00021009163
:1018C0000191029103910068B0F1804F11D10A4853
:1018D000816941F0040181618069694600F004007A
:1018E0000490062000900220019003900348FFF727
:1018F00001F905B000BD00000010024000080140E1
:10190000704770B5044690F83C000D4601280AD097
:10191000012084F83C0042B1042A18D0082A2AD0B9
:101920000C2A4DD139E0022070BD206800F09AFEEB
:101930002068816941F0080181612068816921F096
:1019400004018161206881692A69114311E02068DE
:1019500000F0B0FE2068816941F400618161206877
:10196000816921F480618161206881692A6941EA85
:101970000221816124E0206800F0C8FE2068C1696E
:1019800041F00801C1612068C16921F00401C16111
:101990002068C1692A69114311E0206800F0E2FE65
:1019A0002068C16941F40061C1612068C16921F406
:1019B0008061C1612068C1692A6941EA0221C1616F
:1019C000002084F83C0070BD10B5040003D094F8EA
:1019D0003D0010B107E0012010BD002084F83C005C
:1019E000204600F01EF8022084F83D00211D2068EA
:1019F00000F0E2FD012084F8460084F83E0084F8FF
:101A00003F0084F8400084F8410084F8420084F8E4
:101A1000430084F8440084F8450084F83D00002029
:101A200010BD70477047000010B50446022249B14E
:101A3000042912D008291CD094F84100012823D091
:101A4000012010BD94F83E000128F9D184F83E2011
:101A50002068C26842F0020209E094F83F000128C1
:101A6000EED184F83F202068C26842F00402C260D0
:101A70000EE094F840000128E2D184F8402020686C
:101A8000C26842F00802F2E784F841200C2922D013
:101A90000122206800F0C6FD11492068884203D168
:101AA000426C42F4004242642068884208D0B0F19F
:101AB000804F05D00B49884202D00B49884204D19F
:101AC000816801F00701062903D0016841F0010196
:101AD0000160002010BD2068C26842F01002C6E715
:101AE000002C014000040040000800400068B0F1F4
:101AF000804F0FD108484188491C41808188491C8A
:101B000081804189491C41810188491C01800189EA
:101B1000491C0181704700009C01002070477047FC
:101B200070B5026804461068D168536910F00F0F51
:101B300052D003F0010501F490762E435FD0C20726
:101B400005D0CA0503D5E26B42F00102E263420709
:101B500005D5DA0703D0E26B42F00202E2638207A6
:101B600005D5DA0703D0E26B42F00402E263020714
:101B700007D501F020022A4303D0E26B42F00802AD
:101B8000E263E26B002A33D0800604D5880602D5D2
:101B9000204600F042FE20684069E16BC0F38010EF
:101BA000090700D428B3204600F029FE20684169C7
:101BB00049061AD5416921F040014161606BA0B12D
:101BC0002D494163606BFEF737FF002810D0606B32
:101BD000416BBDE870400847830610D58B060ED5D3
:101BE0002046BDE8704000F018BE2046FFF797FF82
:101BF00070BD2046FFF793FF0020E06370BD030631
:101C00002BD50B0629D594F839002128F6D1A068E8
:101C1000B0F5805F01D12069B0B1206A411C21621A
:101C2000216800784860E08C401E0004000CE084CD
:101C3000E4D12068C16821F08001C1602068C168DA
:101C400041F04001C16070BD206A0088C0F3080007
:101C50005060206A801C2062E5E74006F3D5480604
:101C6000F1D5D168204621F04001D160202184F8CF
:101C7000391000F0FAF870BDEF27000870B50400C5
:101C800004D094F83900002510B106E0012070BDA1
:101C900084F83850204600F023F8242084F83900D6
:101CA0002068C16821F40051C160204600F0FCFDAD
:101CB0002068016921F4904101612068416921F0A7
:101CC0002A0141612068C16841F40051C160E563A7
:101CD000202084F8390084F83A00002070BD00000C
:101CE00030B585B0002400940194029403940068F8
:101CF0001B49884232D11B48816941F4804181618E
:101D0000816901F480410491816941F00801816198
:101D10008069154D00F008000490402000900220DA
:101D200001900320039069462846FEF7E3FE8020D9
:101D3000CDE90004694628460294FEF7DBFE0B4815
:101D4000416841F0E06141F004014160002201215D
:101D50002520FFF735F82520FFF724F805B030BD22
:101D60000038014000100240000C0140000001401A
:101D700090F83A30202B22D1F9B1F2B190F83830F6
:101D8000012B1CD081628285C2850021C163222281
:101D900080F83A2080F838100168CA6842F48072EE
:101DA000CA6001684A6942F001024A610068C1687C
:101DB00041F02001C16000207047012070470220DF
:101DC0007047000030B4174B016800221648994252
:101DD00025D101248470017AA0F18C0329B106E099
:101DE0005D18491C85F82620C9B21E29F8D31B7836
:101DF000532B08D0462B08D00B4A017A663A8B54F5
:101E0000491C017203E00272F6E70272447206494D
:101E100001228C3930BCA1F14C00FFF7A9BF8270C0
:101E200030BC704700380140A801002090F83930DC
:101E3000202B18D1A9B1A2B190F83830012B12D0C3
:101E400001628284C2840021C163212280F839208A
:101E500080F838100068C16841F08001C16000203E
:101E6000704701207047022070477047FEE700006E
:101E70000948084901601021416000218160C1606A
:101E800001614161017641768176C17601774177C2
:101E9000FEF70EBD00640040180000202DE9F0435D
:101EA00085B0002421480094019402940394816930
:101EB00041F020018161816901F020010491816973
:101EC00041F004018161816901F00401049181699B
:101ED00041F0080181618069DFF8548000F008005A
:101EE0004FF440450490002229464046FEF7F2FE9A
:101EF000DFF840904FF40047002239464846FEF78D
:101F0000E9FE0095022601250396CDE901546946B4
:101F10004046FEF7EFFD00970396CDE90154694670
:101F20004846FEF7E7FD05B0BDE8F083001002402B
:101F3000000C01400008014010B58EB00024079449
:101F4000089409940A940B941C2168460C94FEF79B
:101F500002F919484FF0804101604921C0E901149C
:101F600040F2E731C0E903148461FFF721FA4FF42E
:101F70008050079007A91048FFF790FA0E48FFF726
:101F800023FD0B940BA90C480C94FFF7DDF960209E
:101F9000CDE9000402940422694607480494FFF73F
:101FA000B0FC082269460448FFF7ABFC0248FFF783
:101FB00083FC0EB010BD00004000002010B58CB0B6
:101FC00024216846FEF7C7F80024134809941149F4
:101FD0000A94C0E900144FF6FF71C0E902410461A0
:101FE00084610320CDE900040120CDE902040A2127
:101FF0000491CDE90540CDE9074169460648FFF760
:10200000B8FA099409A904480A94FFF79DF90CB09D
:1020100010BD00000004004088000020FEE770476B
:102020007047000070B50A461D4C010008D01D4DD8
:10203000012915D01C4C02291FD003282CD122E0E5
:102040001046FEF743FB00222346FEF77CFA0022EF
:10205000164BFEF706FA0022154BFEF75BF909E076
:1020600029461046FEF70CF9FEF730FB0022234606
:10207000FEF7F7F9FEF711FB0EE021461046FEF7DA
:10208000FFF8294604E029461046FEF7F9F82146F4
:10209000FEF7C4F8FEF7EDFABDE87040FEF7CBBAE4
:1020A0000000284000C079440000AF4300407F405A
:1020B00000307F402DE9F047884601461646002053
:1020C000FFF7B0FFFEF7BCFA84B23480307CDFF853
:1020D000BC902F4F2F4D10B101281FD033E098F83E
:1020E000040070B90FE000BFD9F8000070B10428F7
:1020F0000FD0082828680FD004640120FEF7E8FC00
:10210000E41E002CF0DCD7F800801CE02868446353
:10211000F3E728688463F0E7C463EEE798F8040007
:1021200001280CD10DE03868E8B104281ED0082839
:1021300028681ED004640120FEF7CAFCE41E002CAF
:10214000F1DCD9F80080B8F1000F14D0B8F1040F19
:1021500015D030882968B8F1080F14D00864308889
:102160007080BDE8F08728684463E4E728688463EA
:10217000E1E7C463DFE7296830884863EFE729684F
:1021800030888863EBE7C863E9E700004C2E00085D
:10219000482E000840000020024800210160017123
:1021A0008160704710010020064800210171C17054
:1021B000C171417001708171417181704172017210
:1021C00070470000A801002004480021012201807E
:1021D000418002710181C160017470478801002053
:1021E0002DE9F05F304B15460E46D3F800C0074688
:1021F0002D482E49DFF8B8B0002424304FF47A720D
:102200006FF00A0A4FF00109BCF1010F2BD01B68D7
:10221000112B26D185F80490D0F800C04FF6FF733B
:10222000A3EB0C0CC5F800C0B7F800C0944518D358
:10223000036088460868FEF7FEF95146FEF75EF82F
:102240005946FDF7EBFF1B49FEF71AF8A860FEF7A9
:1022500010FA19490860C8F800403C80347086F8CC
:102260000190BDE8F09F2C7103682B603B8893427E
:10227000F7D3046088460868FEF7DDF95146FEF79B
:102280003DF85946FDF7CAFF0A49FDF7F9FFA86076
:10229000FEF7EFF908490860C8F800403C8086F86E
:1022A00000907470DDE7000000040040040000208E
:1022B000000070420000404200000020074800215A
:1022C000016041608160C1600161416104498161D7
:1022D0000449C161044901627047000064010020A3
:1022E0006F12033D17B7513A17B751382DE9FF5F09
:1022F00093460646DDE90E24408909284FD9194640
:10230000584600F055F801988168DBF80C00FDF79D
:102310007FFF2060676881463946FDF727FFDFF8B9
:1023200084A05146FDF77AFF4FF0FF31FDF7E6FF3D
:1023300021690D46FDF71AFF8046E06039464846A0
:10234000FDF766FF5146FDF79BFFA060074640463C
:10235000216AFDF763FF80463846E169FDF75EFFBD
:1023600007464846A169FDF759FF3946FDF7FEFECD
:102370004146FDF7FBFE0C496061884202DC0B49D7
:10238000884201D9E56061615A4660690199FFF7A9
:1023900091FE20686060E068206100207081BDE8E7
:1023A000FF9F00000000104100004041000040C1BC
:1023B00070B50546487A14460E4601282AD194F88D
:1023C0002B00432826D194F8280094F82A1030389E
:1023D00000EBC00202EB001001EB800094F8291022
:1023E0000D4A01EB810102EB410108442734FEF75D
:1023F00019F90146E8602078302801D0012000E07A
:10240000002028740220FFF70DFEFEF732F9288124
:102410000020707270BD0000F0FDFFFF10B5044693
:102420000F48FFF70FF804210D48FFF7FDFA0821C8
:102430000B48FFF7F9FA0B48016809484830FFF7E5
:102440001DF90948016806484830FFF717F9214689
:1024500003480122BDE810409030FFF789BC00001E
:1024600040000020502E0008542E0008044800218F
:10247000C1808180018141814180018070470000DD
:102480009C0100202DE9FC410646808814460D463B
:10249000B0F57A7F23D3A868FEF7EBF880B2642109
:1024A0002A79B0FBF1F5B0FBF1F301FB15050A2128
:1024B000B0FBF1F7B5FBF1F501FB1700CDE90050DA
:1024C00004F1080007A1054600F052FA82B2A4F810
:1024D000442029460648FFF7A9FC0020B080BDE84B
:1024E000FC8100005325642564256425644346006F
:1024F000D000002002490020A1F8440070470000ED
:102500001C0100207047FEF7F1BB30B58FB02821C9
:102510006846FDF720FE14210AA8FDF71CFE0121E4
:102520000804CDE900100024029402250491CDE9AD
:1025300007504FF4E01009906846FEF75FFD0F204A
:10254000CDE90A056802CDE90C4002210AA80E94E3
:10255000FEF768FC0FB030BD0D48016841F0010185
:10256000016041680B4A1140416001680A4A11400C
:102570000160016821F480210160416821F4FE01BD
:1025800041604FF41F0181600449C0030860704737
:10259000001002400000FFF8FFFFF6FE08ED00E02B
:1025A0000148FFF7D5B80000400000200148FFF7C0
:1025B000CFB8000088000020F0B50268164B174C19
:1025C000174D4FF08047984205D0B84203D0A04243
:1025D00001D0A84203D122F070064A6832439842E3
:1025E00005D0B84203D0A04201D0A84203D122F4C2
:1025F0004074CA6822434C6922F080022243026080
:102600008A68C2620A688262984201D109690163DC
:1026100001214161F0BD0000002C01400004004098
:102620000008004010B501F01F030121046A994021
:102630008C430462016A9A401143016210BD10B5D7
:10264000846842EA032224F47F440A4322438260DE
:1026500010BD826822F070020A4342F007018160D7
:102660007047000030B5026A22F001020262026A7D
:102670004368846924F073050C682C4322F002053A
:102680008A682A430A4DA8420BD122F00805CA687D
:1026900023F440732A434D6922F004021D438B69E1
:1026A0002B434360846149684163026230BD00008E
:1026B000002C014030B5026A22F010020262026A68
:1026C000436884690D6824F4E64444EA05248D686F
:1026D00022F0200242EA05120B4DA8420ED1CD682D
:1026E00022F0800242EA05124D6923F4406343EA76
:1026F00085038D6922F0400243EA850343608461CB
:1027000049688163026230BD002C014030B5026A25
:1027100022F480720262036A4268C46923F400737F
:1027200024F073050C682C438D6843EA05230C4D97
:10273000A8420ED1CD6823F4006343EA05234D6916
:1027400022F4405242EA05128D6923F4806342EA82
:1027500005124260C4614968C163036230BD000074
:10276000002C014030B5026A22F480520262046AF1
:102770004268C3690D6823F4E64343EA05238D6884
:1027800024F4005444EA0534064DA84204D14D69AE
:1027900022F4804242EA85124260C36149680164C2
:1027A000046230BD002C014010B5036A046A24F0B5
:1027B00001040462846924F0F00444EA021423F062
:1027C0000A020A438461026210BD10B5036A23F055
:1027D000100303628369046A23F4704343EA0232FC
:1027E00024F0A00343EA01118261016210BD10B51B
:1027F000406A0021C185C184FFF791F910BD0168CD
:10280000CA6822F49072CA6001684A6922F0010223
:102810004A61202180F83A10704710B590F83A10BC
:10282000222901D0022010BD82684FF480539A42C1
:1028300001D1016921B1816A9A421BD04AB10AE0F3
:102840000268816A5268C2F308020A80816A891CA0
:1028500008E0026972B10268526802F07F020A70F1
:10286000816A491C8162C18D491E0904090CC18518
:1028700003D016E002685268F1E70168CA6822F0E6
:102880002002CA600168CA6822F48072CA600168C6
:102890004A6922F001024A61202180F83A10FFF7CC
:1028A00091FA002010BD000070B50446006801696F
:1028B000E26821F44051114301612169A068084395
:1028C000616908432168CA6841F20C639A43024374
:1028D000CA6020684169A26921F4407111434161D5
:1028E0001E492068884202D1FEF742FB01E0FEF754
:1028F0002FFB00EBC00101EB001260686421800037
:10290000B2FBF0F3B3FBF1F36FF018067343B2FBC5
:10291000F0F5B2FBF0F605EB8305322303EB05156A
:10292000B5FBF1F5B6FBF1F605F0F00505EB061584
:10293000B2FBF0F6B2FBF0F0B0FBF1F06FF0180272
:10294000504306EB800003EB0010B0FBF1F0216870
:1029500000F00F002844886070BD0000003801407E
:102960000148FFF7DDB80000D0000020FEE70000BE
:102970000FB4084B10B504A902AA039800F02CF874
:10298000044602A9002000F0C8F9204610BC5DF8FA
:1029900014FB00001B2D00080907090E002804DBAA
:1029A00000F1E02080F80014704700F00F0000F103
:1029B000E02080F8141D704702E008C8121F08C10B
:1029C000002AFAD170477047002001E001C1121FB0
:1029D000002AFBD1704700002DE9FF4F8BB08846DD
:1029E0000546002606E025280BD0DDE90D129047AC
:1029F0006D1C761C28780028F5D10FB03046BDE854
:102A0000F08F0024A146A2460122AE4900E0044313
:102A100015F8013F203B02FA03F00842F7D128786D
:102A20002A2810D06FF02F022878A0F13001092950
:102A300015D809EB890102EB410144F0020400EBD7
:102A400001096D1CF0E758F8041B5FEA010903D582
:102A500044F40054C9F1000944F002046D1C2878C4
:102A60002E2817D115F8010F44F004042A280ED09F
:102A70006FF02F022878A0F1300109290AD80AEB5B
:102A80008A0102EB410100EB010A6D1CF2E758F8E4
:102A900004AB6D1C28786C280FD006DC4C2817D0AE
:102AA00068280DD06A2814D104E0742810D07A2840
:102AB0000FD10DE044F400140AE044F4801401E066
:102AC00044F440146978814202D104F580146D1CED
:102AD0006D1C2878692865D006DC00288DD0632815
:102AE00027D0642806D15DE06E2808D073282AD04C
:102AF000752877D0DDE90D129047761CE0E0C4F32D
:102B00000250022809D003280DD0D8F8001004285C
:102B10000DD00E6008F10408D2E0D8F80010F217CA
:102B2000C1E90062F6E7D8F800100E80F2E70E70F7
:102B3000F0E718F8041B8DF8001000208DF8010054
:102B4000EB46012003E058F804BB4FF0FF3061076B
:102B50004FF0000701D40AE07F1C57450DDA874289
:102B6000FADB1BF807100029F6D106E07F1C87422C
:102B7000FCDB1BF807100029F8D1DDE90D23A9EBD8
:102B800007008146214600F0B1F83044C61904E040
:102B9000DDE90D121BF8010B90477F1EF8D221468C
:102BA000484688E058F8040BC4F302514FF00A0B72
:102BB000032900D100B2042900D140B2002802DA72
:102BC00040422D2102E0210505D52B218DF824104E
:102BD000012104E006E0E10710D02021F6E708AF6C
:102BE000089113E058F8040BC4F302514FF00A0B9C
:102BF000032900D180B2042900D1C0B20021EEE740
:102C00005946FDF776FD303107F8011D0028F7D150
:102C1000ADEB070000F1200B600702D524F48034EF
:102C200001E04FF0010ADA4502DDAAEB0B0000E0FB
:102C30000020824600EB0B0108980144A9EB01003B
:102C40000A90E00306D4DDE90D2321460A9800F03E
:102C50004DF806444FF0000908E009A911F80900F1
:102C6000DDE90D12904709F10109761C08998945A3
:102C7000F3DBE0030CD5DDE90D2321460A9800F0D3
:102C800035F8064404E0DDE90D1230209047761C4B
:102C9000BAF10001AAF1010AF5DC05E0DDE90D1247
:102CA00017F8010B9047761CBBF10001ABF1010B4B
:102CB000F4DC0A982146DDE90D2300F005F806440E
:102CC0006D1C97E6092801002DE9F0410446002516
:102CD0001E461746880404D405E039462020B04734
:102CE0006D1C641EF9D52846BDE8F0812DE9F04140
:102CF000044600251E469046C80301D5302700E053
:102D00002027880404D505E041463846B0476D1CAD
:102D1000641EF9D52846BDE8F0810A68531C0B6093
:102D2000107070471CB5FDF7E9FFFFF7EEFBFFF7EA
:102D3000B5F8FFF701F9FFF741F9FFF799F83F48B8
:102D40003D49002401604FF4E131C0E901140C2138
:102D5000C460C0E904418461C461FEF78FFFFFF7DE
:102D60001BFAFFF731FAFFF7A9FAFFF7C3FBFFF7EA
:102D70001BFAFFF77BFB31484C30FFF74FFB2F4826
:102D80004C30FFF74BFB2D4EDFF8B480B836DFF840
:102D9000B4904FF07E57A6F58075284A4C3202F168
:102DA0008C01A1F12000FFF703FB244A403202F11D
:102DB0009801A1F10C00FFF713FAF068B84223DA8A
:102DC000D8F8001081B1042911D02868082911D041
:102DD000C0F84040D9F8001071B104290FD028681C
:102DE00008290FD004641DE028684463F2E72868CE
:102DF0008463EFE7C463EDE72868446312E0286862
:102E000084630FE0C4630DE00C499431A1F14800E4
:102E1000CDE9000100F18C0300F16C0254398030DF
:102E2000FFF764FA054A4C32A2F10C0101F18C0063
:102E3000FFF728FBB1E7000000380140D000002078
:102E4000482E00084C2E0008040000000800000076
:102E5000000000000400000000000000000000006E
:102E60000102030406070809000000000102030430
:102E7000902E00080000002018000000B82900086B
:102E8000A82E000818000020A0050000C82900088E
:102E9000000000000000000000A24A040100000041
:082EA00010000000000000001A
:04000005080000ED02
:00000001FF
