:020000040800F2
:10000000E005002001010008C31E0008DD1C0008F7
:10001000C11E0008A9080008B5280008000000005B
:100020000000000000000000000000002D23000878
:10003000AB08000800000000E51E00082F230008A0
:100040001B0100081B0100081B0100081B01000820
:100050001B0100081B0100081B0100081B01000810
:100060001B0100081B0100081B0100081B01000800
:100070001B0100081B0100081B0100081B010008F0
:100080001B0100081B0100081B0100081B010008E0
:100090001B0100081B0100081B0100081B010008D0
:1000A0001B0100081B0100081B0100081B010008C0
:1000B000BD230008C9230008D52300081B01000840
:1000C0001B0100081B0100081B0100081B010008A0
:1000D0001B010008A92800081B0100081B010008DB
:1000E0001B0100081B0100081B010008DFF80CD0F1
:1000F00000F0C8FB004800474D2C0008E005002038
:100100000648804706480047FEE7FEE7FEE7FEE7B1
:10011000FEE7FEE7FEE7FEE7FEE7FEE775230008E1
:10012000ED000008202A04DB203A21FA02F0002129
:10013000704721FA02F3D040C2F1200291400843F7
:1001400019467047D2B201E000F8012B491EFBD2DC
:1001500070470022F6E710B513460A4604461946D2
:10016000FFF7F0FF204610BDF0B480EA0102D40F83
:100170004200B2EB410F02D20246084611464A0045
:1001800042D0C30DDDB2C1F3C752AD1A202D35DA0E
:10019000C1F3160141F4000204B15242C5F1200638
:1001A00002FA06F12A411044B3EBD05F23D0C4B168
:1001B000012DA0EBC35009DCF0BC4FF0004202EA75
:1001C000C352DBB200F5000000F0D1BA400000F1EC
:1001D000807000EBC350A0F1807040EAD1704900FC
:1001E00009E0490841EAC071A0EBC35000F50000E6
:1001F000400800EBC350F0BC00F0B0BA61420122ED
:1002000002EB4101001BF6E7F0BC704781F00041B2
:10021000AAE780F00040A7E780EA010210B502F0EB
:100220000043400022D04A001FD0010E01EB1261B2
:10023000C0F35600C2F3560240F4000042F400023C
:10024000A0FB022000047F39140400D0401C50EAB7
:10025000124001D44000491EC2B20C0604EBD0107B
:10026000401C4008802A02D003E0002010BD20F08E
:100270000100002900DA0020184310BD30B480EAE4
:10028000010202F0004530F0004221F0004013D09E
:1002900090B1C30DD40DC2F31601C0F31600E41AD9
:1002A00041F4000140F400027D34914201D3641C0A
:1002B00000E04900002C02DA30BC002070474FF407
:1002C00000000023914201D3891A034340084FEAFA
:1002D0004101F7D151B1914202D14FF0004105E007
:1002E00002D24FF0010101E06FF0010103EBC450B5
:1002F000284430BC00F032BA420005D0C0F3C752E7
:100300005242914201DC0020704700EBC15070471F
:100310002DE9FE4F804681EA0300C00F0C46009095
:1003200021F0004123F00045B8EB0200A94105D2BD
:100330004046214690461C460B46024623F00040AC
:10034000104347D0270DC7F30A00C3F30A510290A8
:10035000401A019040286BDAC3F3130040F4801B6D
:100360000098924620B10023D2EB030A63EB0B0BFB
:1003700001985946C0F14002504600F0CEF90646B9
:100380000D4650465946019A00F0D6F910EB080088
:100390006141002487EA115284EAE7731A4340D08E
:1003A000009A62B3019A012A4FEA075215DC001B3A
:1003B00061EB02014FF0004202EA0752CDE9004230
:1003C000001C41F5801132462B4600F00DFA03B0B7
:1003D000BDE8F08F40462146F9E7001B61EB0201C2
:1003E000001C41F5801300185B412018A2F500178E
:1003F00047EB030140EAD570B6196D4111E06D0875
:100400004FEA360645EAC0754FEA0752001B61EB1A
:100410000201001C41F5801149084FEA3000001923
:10042000514132462B4603B0BDE8F04F00F0CDB944
:100430000098012240000023D0EB020263EBE0733E
:10044000009821464FEAE074B8EB000061EB04012C
:10045000E9E783F000435BE781F0004158E72DE9CD
:10046000FE4F81EA030404F0004421F000410094AF
:100470004FF0000B23F0004350EA01045ED052EA33
:1004800003045BD0C3F30A54C1F30A552C44A4F20D
:10049000F3340194A0FB0254C1F3130141F4801121
:1004A000C3F3130343F4801301FB024400FB034E28
:1004B000840A970A44EA815447EA8357A4FB0768F1
:1004C00002958D0A05FB07854FEA932C04FB0C541B
:1004D0002705029D4FEA065847EA1637B5EB08058F
:1004E0006EEB070C870E920E47EA811742EA8312E1
:1004F000A7FB0201B6EB0B0164EB00042B0D43EAF2
:100500000C335E1844EB1C50DA465146E7FB0201FF
:10051000C5F313044FEA0B3343EA14534FEA043292
:10052000019C43EA0603A4F10C040294009CCDE96B
:1005300000B400F059F903B0BDE8F08F0020014687
:10054000F9E72DE9F04D81EA030404F0004B21F0B6
:10055000004514464FF0000A23F0004150EA05021E
:1005600020D054EA01021DD0C5F30A570246C5F354
:100570001303C1F31300C1F30A5640F4801543F48A
:100580008013A7EB0608101BD64608F2FD3873EB64
:10059000050002D308F1010801E092185B41B8F1AF
:1005A000000F03DA00200146BDE8F08D00204FF473
:1005B0008011064684460EE0171B73EB050705D332
:1005C000121B63EB050306434CEA010C49084FEA92
:1005D000300092185B4150EA0107EDD152EA030066
:1005E00012D082EA040083EA0501084305D0101BFB
:1005F000AB4106D20122002306E000224FF0004367
:1006000002E06FF0010253101AEB06004CEB0851A8
:1006100010EB0A0041EB0B01BDE8F04D00F0D5B83E
:10062000C10F80EAE0700844CA079623002100F059
:100630009EB896230022114600F099B800F00042BF
:1006400020F00040C10DC0F3160040F400007F29E7
:1006500001DA00207047962903DCC1F19601C840F9
:1006600001E096398840002AF4D04042704720F0DB
:100670000040C10DC0F3160040F400007F2901DAEC
:1006800000207047962903DCC1F19601C8407047ED
:10069000963988407047C1F30A5210B5C1F313016F
:1006A00040F2FF3341F480119A4201DA002010BD7C
:1006B00040F233439A42A2F2334203DC5242FFF744
:1006C00031FD10BD904010BD00F0004230F0004000
:1006D0000AD0C10D01F56071C0F3160042EA015164
:1006E000C20840071143704700200146704730B5EB
:1006F0000B46014600202022012409E021FA02F5E0
:100700009D4205D303FA02F5491B04FA02F5284479
:10071000151EA2F10102F1DC30BD202A04DB203AD3
:1007200000FA02F1002070479140C2F1200320FA44
:1007300003F3194390407047202A06DBCB17203A79
:1007400041FA02F043EAE07306E041FA02F3D040D6
:10075000C2F1200291400843194670470029A8BF02
:100760007047401C490008BF20F00100704710B4DA
:10077000B0FA80FC00FA0CF050EA010404BF10BC8F
:10078000704749B1CCF1200421FA04F411FA0CF1BC
:1007900018BF012121430843A3EB0C01CB1D4FEAF5
:1007A00000614FEA102042BF002010BC704700EBF0
:1007B000C35010440029A4BF10BC7047401C49001E
:1007C00008BF20F0010010BC704710B5141E73F173
:1007D000000408DA401C41F1000192185B411A4301
:1007E00001D120F0010010BD2DE9F04D92469B464D
:1007F00011B1B1FA81F202E0B0FA80F220329046F3
:10080000FFF78BFF04460F4640EA0A0041EA0B015E
:1008100053465A46084313D0114653EA010019D0F3
:10082000C8F140025046FFF77DFC05460E46504693
:1008300059464246FFF771FF084305D0012004E006
:1008400020463946BDE8F08D0020054346EAE076B3
:100850002C4337430A986305E40AA0EB0800002202
:10086000FD0A44EA47540A3002D500200146E9E770
:10087000010510196941DDE9084500196941BDE824
:10088000F04DA2E7064C074D06E0E06840F001039A
:1008900094E8070098471034AC42F6D3FFF72AFCDF
:1008A000782D0008982D0008FEE7704770B5040009
:1008B00003D094F8200010B104E0012070BD204660
:1008C00000F082F82068016821F00201016000F068
:1008D000F3F90546052604E000F0EEF9401B0A286E
:1008E00011D8206840688007F6D42068016841F07C
:1008F0000101016000F0E0F905460BE000F0DCF9D1
:10090000401B0A2806D9606A40F40030606284F80F
:100910002060D2E720684068C007EFD0207E012821
:10092000206801683DD021F080010160607E0128CF
:100930002068016838D021F040010160A07E0128C4
:100940002068016833D021F020010160E07E012899
:10095000206801682ED041F010010160207F01283D
:100960002068016829D021F008010160607F01281A
:100970002068016824D021F004010160D4E902015B
:100980000843D4E90412114308436168491E08432F
:100990002168C86100206062012084F820000020E6
:1009A00070BD41F08001C0E741F04001C5E741F072
:1009B0002001CAE721F01001CFE741F00801D4E798
:1009C00041F00401D9E7000010B586B00021009184
:1009D00001910291039100681349884222D1134882
:1009E000C16941F00071C161C16901F000710491F8
:1009F000816941F00401816180690D4C00F00400BF
:100A000004904FF4006000906946204600F070F8B2
:100A1000A014009002200190032003906946204614
:100A200000F066F806B010BD0064004000100240FF
:100A30000008014010B590F821100024022903D0CD
:100A40000421816301243DE001680A6822F00E025E
:100A50000A6001680A6822F001020A601A4A016805
:100A6000914201D1012121E0174A1432914201D172
:100A700010211BE0144A2832914201D1891515E05A
:100A8000114A3C32914201D189140FE00E4A503292
:100A9000914202D14FF4803108E00B4A6432914216
:100AA00002D14FF4801101E04FF08071064A083AFC
:100AB0005160012180F82110002180F82010416B45
:100AC00001B18847204610BD0800024070B50446B9
:100AD00000F0F2F80546601C02D004480078044497
:100AE00000F0EAF8401BA042FAD370BD00000020DD
:100AF0002DE9F84FDFF890A100220AF1040B14460B
:100B000001274FF00F090BF1040E00BF0B6807FA25
:100B100004F52B40AB4274D1DFF870C14E68A6EBF0
:100B20000C0866452BD00DDC032E34D005DC36B323
:100B3000012E19D0022E2FD11BE0112E16D0122E0D
:100B40002AD119E0B8F5881F19D006DCB8F5803F26
:100B500015D0B8F5801F1FD111E0B8F5001F0ED0D9
:100B6000B8F5041F18D10AE0CA6815E0CA68121D5A
:100B700012E0CA6808320FE0CA680C320CE08A68DA
:100B80002AB1012A4FF0080203D0456104E0042293
:100B900002E0056100E00022FF2B01D8064601E0DB
:100BA00000F104064FEA840501D9A5F12005D6F825
:100BB00000C009FA05F82CEA080C02FA05F54CEA1F
:100BC000050CC6F800C04D68ED0057D5304DAE6934
:100BD00046F00106AE61AD6924F0030605F001059B
:100BE00000952C4D06EB050CDCF80850A6074FEAE3
:100BF000167809FA08F6B543274EB04202D100260E
:100C000010E03BE0254EB04201D101260AE0244E1F
:100C1000B04201D1022605E0224EB04201D10326A6
:100C200000E0042606FA08F62E43CCF808604D686A
:100C3000DAF80060ED03554601D51E4300E09E43FF
:100C40002E604D68DBF80060AD035D4601D51E43A4
:100C500000E09E432E604D68DEF80060ED027546B0
:100C600001D51E4300E09E432E604D68AD020E4D3F
:100C70002E6801D51E4300E09E432E60641C102C9C
:100C8000FFF444AFBDE8F88F0004014000001110EC
:100C9000001002400000014000080140000C01402B
:100CA00000100140001401400C0401400AB1016130
:100CB00070470904FBE700000148806870470000A6
:100CC000000000200248816802781144816070476A
:100CD00000000020074810B5016841F010010160D4
:100CE000032000F073F8002000F006F800F024F86C
:100CF000002010BD0020024070B50D4D04464FF499
:100D00007A712878B1FBF0F00A490968B1FBF0F07C
:100D100000F0FCFA48B9102C07D200222146501EE0
:100D200000F034F800206C6070BD012070BD000040
:100D3000000000200C0000200C4808B5816941F03B
:100D400001018161816901F001010091C16941F0F6
:100D50008051C161C06900F0805000900448416832
:100D600021F0E06141F00071416008BD00100240D7
:100D70000000014000F01F02012191404009800065
:100D800000F1E020C0F8001170470000F0B40E4BF5
:100D90001B680C46C3F30223C3F10705042D00D9D9
:100DA0000425191D072901D2002300E0DB1E0126BE
:100DB00006FA05F1491E214099409E40761E1640D4
:100DC0003143F0BC01F07EB80CED00E0064900F0C4
:100DD000070208684FF6FF03184040EA0220034A62
:100DE00010430860704700000CED00E00000FA05B9
:100DF0002DE9F047DFF8548105460E46D8F800008B
:100E000000F00700B0420CD2D8F8001021F0070122
:100E10003143C8F80010D8F8000000F00700B042D5
:100E20006FD128684A4C810712D5400703D5606806
:100E300040F4E06060602878000703D5606840F403
:100E4000605060606068A96820F0F000084360604E
:100E50002878C00744D06868012816D02168022885
:100E600016D0890700294CDA616821F0030101439B
:100E70006160FFF721FF6968074641F28830012968
:100E80000ED00229814618D026E021688903E9E7BF
:100E90008901E7E7FFF710FFC11B494501D918E0B9
:100EA00081466068C0F381000128F3D118E000BFDB
:100EB000FFF702FFC11B49450BD86068C0F38100F2
:100EC0000228F5D10CE000BFFFF7F6FEC11B494533
:100ED00002D90320BDE8F087606810F00C0FF3D151
:100EE000D8F80010404601F00701B1420BD9016863
:100EF00021F0070131430160006800F00700B042B3
:100F000001D00120E6E72878400705D56068E96848
:100F100020F4E060084360602878000706D5606828
:100F2000296920F4605040EAC100606000F036F8A2
:100F30006168084AC1F30311515CC8400649086062
:100F40000020FFF7D9FE0020C4E700000020024087
:100F500000100240602D00080C00002004480549E4
:100F600000684968044AC1F30221515CC8407047D7
:100F70000C00002000100240702D000804480549B4
:100F800000684968044AC1F3C221515CC8407047F7
:100F90000C00002000100240702D000812A185B046
:100FA0000FC98DE80F0014A0144A0068049051681E
:100FB000134801F00C03042B10D0082B0ED1C1F301
:100FC0008343C9031DF803000AD5516804AAC1F37D
:100FD0004041515C0A4A5043B0FBF1F005B0704704
:100FE00008494843FAE70000020304050607080918
:100FF0000A0B0C0D0E0F1010010200000010024031
:1010000000127A0000093D002DE9F84F04460078EF
:10101000B94DC00748D06868C0F38100012807D0E7
:101020006868C0F38100022809D16868C00306D54A
:101030002868800338D5606800286FD034E0606885
:10104000B0F5803F0BD010B1B0F5A02F11D02868BB
:1010500020F480302860286820F4802002E028688E
:1010600040F480302860606888B1FFF725FE0646AE
:1010700009E0286840F480202860F0E7FFF71CFEB4
:10108000801B642875D828688003F7D50CE0FFF72B
:1010900013FE064605E000BFFFF70EFE801B642826
:1010A000F0D828688003F7D42078944E80074FF05A
:1010B00001094FF000083BD5686810F00C0F07D00D
:1010C0006868C0F38100022809D16868C00306D4AB
:1010D0002868800714D5206901281FD110E02069F5
:1010E000B0B1C6F80090FFF7E7FD074605E000BF86
:1010F000FFF7E2FDC01B0228C4D828688007F7D597
:101100002868616920F0F80040EAC10028600FE01B
:10111000C6F80080FFF7D0FD074606E0E9E000BF13
:10112000FFF7CAFDC01B022823D828688007F7D420
:10113000207800072CD57248A169D9B1C0F8009079
:10114000FFF7BAFD074604E0FFF7B6FDC01B022813
:101150000FD8686A8007F7D56A484FF4FA510068DB
:10116000B0FBF1F0009000BF0098411E0091FAD250
:101170000EE080E0C0F80080FFF79EFD074604E027
:10118000FFF79AFDC01B022875D8686A8007F7D45C
:101190002078400760D5E8690027C00008D4E869D6
:1011A00040F08050E861E869012700F0805000902D
:1011B00055480168C90513D40168834641F480711C
:1011C0000160FFF779FD824606E000BFFFF774FD7E
:1011D000A0EB0A0064284ED8DBF80000C005F5D566
:1011E000E06801280AD008B1052813D0286A20F049
:1011F00001002862286A20F0040002E0286A40F01A
:1012000001002862E06841F2883B98B1FFF754FD85
:1012100082460BE0286A40F004002862EEE700BF37
:10122000FFF74AFDA0EB0A0159455AD8286A800702
:10123000F6D50CE0FFF740FD824605E0FFF73CFDE8
:10124000A0EB0A0159454CD8286A8007F6D41FB193
:10125000E86920F08050E861E06988B36968C1F30B
:101260008101022945D00228C6F8608004D0FFF72A
:1012700023FD044638E034E0FFF71EFD074604E096
:10128000FFF71AFDC01B02282BD828688001F7D46D
:10129000206AB0F5803F05D16868A16820F400306D
:1012A00008436860D4E908010843696821F47411AF
:1012B00008436860C6F86090FFF7FEFC044606E04D
:1012C00015E000BFFFF7F8FC001B022809D82868CA
:1012D0008001F7D50BE000BFFFF7EEFC001B0228F2
:1012E00002D90320BDE8F88F28688001F4D40020DB
:1012F000F8E70120F6E7000000100240000042423B
:10130000800442420C0000200070004010B5401ED6
:10131000B0F1807F01D3012010BD4FF0E024606167
:101320000F21601700F0CEFD0020A0610720206192
:10133000002010BD7047704730B590F83C20012A5E
:1013400020D0012280F83C20022380F83D30036841
:101350005C6824F070045C6003685C680D682C4372
:101360005C6003689C6824F080049C6003689C684F
:1013700049680C439C6080F83D20002180F83C10B7
:10138000084630BD022030BD10B5040003D094F8EB
:101390003D0010B107E0012010BD002084F83C00A2
:1013A000204600F00DF8022084F83D00211D206841
:1013B00001F016F8012084F83D00002010BD000067
:1013C00008B500680B49884212D10B48C16941F049
:1013D0000401C161C069002200F0040000901146C0
:1013E0001E20FFF7D3FCBDE808401E20FFF7C2BC5B
:1013F00008BD000000080040001002400168CA68F3
:1014000042F00102CA600068016841F00101016018
:101410000020704770B5044690F83C00012817D0B2
:10142000012584F83C50022084F83D002068826841
:1014300022F0770222F47F4282600868502837D079
:101440000DDC202859D005DC88B3102841D151E0AB
:10145000022070BD302853D040283AD13FE06028A8
:101460002ED070280BD0B0F5805F03D0B0F5005FB0
:101470002FD110E02068816821F0070115E0CB68CA
:10148000D1E90121206800F0ECFF2168886840F074
:10149000770088601DE0CB68D1E90121206800F069
:1014A000E0FF2068816841F48041816011E01EE026
:1014B000CA684968206801F089F85021206806E070
:1014C000CA684968206801F092F86021206800F03D
:1014D000D2FF84F83D50002084F83C0070BDCA68FB
:1014E0004968206801F072F840212068EFE7002188
:1014F0002068ECE710212068E9E720212068E6E772
:1015000030212068E3E72DE9F0410D46040003D0C7
:1015100094F83D0018B108E00120BDE8F0810020FA
:1015200084F83C00204600F039F8022084F83D00A1
:101530002068816821F007018160211D206800F08A
:101540004FFF226890689169166A2B68AF69034360
:1015500040F20330814341EA0721A868EF6908435C
:101560004FF6FC418843E96840EA072001432869B7
:101570002F6A000140EA0730084369686D6926F068
:10158000AA0646EA051529439360226890612068FF
:101590000162012084F83D000020BEE700B585B05F
:1015A000002100910191029103910068B0F1804FF8
:1015B0001ED11048C16941F00101C161C16901F04A
:1015C00001010491816941F00401816180696946EA
:1015D00000F004000490032000900748FFF788FA09
:1015E000002211461C20FFF7D1FB1C20FFF7C2FB95
:1015F00005B000BD001002400008014010B50446CF
:10160000006889B104294FF0010216D0002100F0D2
:101610001DFF01220421206800F018FF2068C16826
:1016200041F00201C1600BE00122002100F00EFF39
:101630002068C16841F0020106E0042100F006FFC5
:101640002068C16841F00401C1602068016841F070
:1016500001010160002010BD704770B504460068AC
:1016600001694FF00005C943890715D4C168C94312
:10167000890711D4E91E0161012020772068806963
:101680008007204602D0FFF7E7FF04E000F0BEF835
:10169000204600F05DF9257720680169C9434907B4
:1016A00017D4C168C943490713D46FF0040101611D
:1016B000022020772068806910F4407F204602D005
:1016C000FFF7CAFF04E000F0A1F8204600F040F95F
:1016D000257720680169C943090716D4C168C94341
:1016E000090712D46FF008010161042020772068F7
:1016F000C0698007204602D0FFF7AEFF04E000F08B
:1017000085F8204600F024F9257720680169C9434F
:10171000C90617D4C168C943C90613D46FF01001B4
:101720000161082020772068C06910F4407F2046BE
:1017300002D0FFF791FF04E000F068F8204600F0C7
:1017400007F9257720680169C943C90708D1C1682D
:10175000C943C90704D1891E0161204600F02AF956
:1017600020680169C943090609D4C168C94309064B
:1017700005D46FF0800101612046FFF7DBFD206892
:101780000169C943490609D4C168C943490605D45A
:101790006FF040010161204600F026F920680169E0
:1017A000C94389060BD4C168C943890607D46FF0C1
:1017B000200101612046BDE87040FFF7BCBD70BD4F
:1017C00000B585B00021009101910291039100685C
:1017D0000B49884211D10B48816941F004018161B4
:1017E0008069694600F004000490C0200090022047
:1017F000019003900448FFF77BF905B000BD00009D
:10180000000400400010024000080140704770B51D
:10181000044690F83C000D4601280DD0012684F8BE
:101820003C60022084F83D0042B1042A18D0082A06
:101830002AD00C2A4DD139E0022070BD206800F07A
:1018400023FE2068816941F0080181612068816977
:1018500021F004018161206881692A69114311E046
:10186000206800F039FE2068816941F400618161DF
:101870002068816921F480618161206881692A6919
:1018800041EA0221816124E0206800F051FE2068D5
:10189000C16941F00801C1612068C16921F00401FA
:1018A000C1612068C1692A69114311E0206800F014
:1018B0006BFE2068C16941F40061C1612068C169A3
:1018C00021F48061C1612068C1692A6941EA02216D
:1018D000C16184F83D60002084F83C0070BD10B503
:1018E000040003D094F83D0010B107E0012010BDC2
:1018F000002084F83C00204600F00CF8022084F818
:101900003D00211D206800F06BFD012084F83D00A2
:10191000002010BD08B500680B49884212D10B4861
:10192000C16941F00201C161C069002200F00200FA
:10193000009011461D20FFF729FABDE808401D2040
:10194000FFF718BA08BD0000000400400010024074
:101950007047000010B50268044631B1042908D070
:1019600008291DD00C2908D11EE0D06840F00200E3
:1019700002E0D06840F00400D0600122206800F04E
:1019800065FD0B492068884203D1416C41F4004158
:1019900041642068016841F001010160002010BD30
:1019A000D06840F00800E7E7D06840F01000E3E7B7
:1019B000002C014000680A4988420FD1094841883B
:1019C000491C41808188491C81804189491C418191
:1019D0000188491C01800189491C01817047000070
:1019E00000080040C40100207047704770B50268CD
:1019F00004461068D168536910F00F0F50D003F0FF
:101A0000010501F4907635435DD0C20705D0CA05C3
:101A100003D5E26B42F00102E263420705D5DA0723
:101A200003D0E26B42F00202E263820705D5DA07D7
:101A300003D0E26B42F00402E263020705D5DA0745
:101A400003D0E26B42F00802E263E26B002A33D07B
:101A5000800604D5880602D5204600F0F0FD2068F7
:101A60004069E16BC0F38010090700D428B3204619
:101A700000F0D7FD2068416949061AD5416921F077
:101A800040014161606BA0B11B494163606BFEF78F
:101A9000D1FF002810D0606B416BBDE87040084753
:101AA000830610D58B060ED52046BDE8704000F0A9
:101AB000C6BD2046FFF799FF70BD2046FFF795FF92
:101AC0000020E06370BD030606D50B0604D5204652
:101AD000BDE8704000F0B6BE4006F3D54806F1D52B
:101AE000D168204621F04001D160202184F83910CE
:101AF00000F0F3F870BD00001326000870B5040074
:101B000004D094F83900002510B106E0012070BD22
:101B100084F83850204600F023F8242084F8390057
:101B20002068C16821F40051C160204600F0D2FD58
:101B30002068016921F4904101612068416921F028
:101B40002A0141612068C16841F40051C160E56328
:101B5000202084F8390084F83A00002070BD00008D
:101B600030B585B000240094019402940394006879
:101B7000184988422CD11848816941F4804181611B
:101B8000816901F480410491816941F0040181611E
:101B90008069124D00F0040004904FF40070009032
:101BA000022001900320039069462846FEF7A0FF1B
:101BB0002815CDE90004694628460294FEF798FFEF
:101BC000002211462520FFF7E1F82520FFF7D2F883
:101BD00005B030BD0038014000100240000801404F
:101BE00090F83A30202B22D1F9B1F2B190F8383088
:101BF000012B1CD081628285C2850021C163222213
:101C000080F83A2080F838100168CA6842F480727F
:101C1000CA6001684A6942F001024A610068C1680D
:101C200041F02001C1600020704701207047022070
:101C30007047000030B4174B0168002216489942E3
:101C400025D101248470017AA0F18C0329B106E02A
:101C50005D18491C85F82620C9B21E29F8D31B78C7
:101C6000532B08D0462B08D00B4A017A663A8B5486
:101C7000491C017203E00272F6E7027244720649DF
:101C800001228C3930BCA1F14C00FFF7A9BF827052
:101C900030BC704700380140D001002090F8393046
:101CA000202B18D1A9B1A2B190F83830012B12D055
:101CB00001628284C2840021C163212280F839201C
:101CC00080F838100068C16841F08001C1600020D0
:101CD000704701207047022070477047FEE7000000
:101CE0000948084901601021416000218160C160FC
:101CF00001614161017641768176C1760177417754
:101D0000FEF7D4BD00640040100000202DE9F04330
:101D100085B00024214800940194029403948169C1
:101D200041F020018161816901F020010491816904
:101D300041F004018161816901F00401049181692C
:101D400041F0080181618069DFF8548000F00800EB
:101D500048F220050490002229464046FEF7A6FFDF
:101D6000DFF840904CF20107002239464846FEF762
:101D70009DFF0095022601250396CDE90154694691
:101D80004046FEF7B5FE00970396CDE9015469463B
:101D90004846FEF7ADFE05B0BDE8F08300100240F6
:101DA00000080140000C014010B58CB024216846A9
:101DB000FEF7CFF90024124809944FF080410A94AD
:101DC000C0E900144FF6FF71C0E90241046184616B
:101DD0000320CDE900040120CDE902040494CDE9FB
:101DE00005400794694606480894FFF78CFB099460
:101DF00009A903480A94FFF79FFA0CB010BD000030
:101E00003800002010B58AB0002407941C216846D1
:101E10000894FEF79EF91448124901600721C0E9B1
:101E2000011440F2E731C0E903148461FFF757FD64
:101E3000079407A90C480894FFF77EFA6020CDE9C3
:101E4000000402940022694607480494FFF7DFFC6F
:101E5000042269460448FFF7DAFC0348FFF7B0FCA8
:101E60000AB010BD000400407800002010B586B014
:101E700000241248009401940294039404940E499F
:101E8000059401600721C0E9011440F2E731C0E97F
:101E900003148461FFF778FA4FF48050009069468C
:101EA0000648FFF7B7FA049404A904480594FFF71D
:101EB00043FA06B010BD000000080040B800002042
:101EC000FEE770470907090E002806DA00F00F0048
:101ED00000F1E02080F8141D704700F1E02080F848
:101EE000001470477047000010B51B4C0B460200F1
:101EF00008D01A49012A15D0194C022A20D00328EB
:101F00001AD10FE00846FEF7DFFB00222346FEF75A
:101F100018FB0022134BFEF7A2FA0022124BFEF729
:101F2000F7F907E01846FEF7A9F9FEF7CDFB002206
:101F300023460EE0FEF7AFFBBDE81040FEF779BB8D
:101F40001846FEF7C1FB00222346FEF7FAFA0022EC
:101F5000064BFEF784FAEDE70000284000C0794404
:101F600000005E4000407F4000307F4000388F40DE
:101F70002DE9F0478846014615460020FFF7B4FFDB
:101F8000FEF75CFB84B22C80287C1C4F1C4EDFF8D3
:101F9000749010B1012813D026E098F8040050B9CD
:101FA0000BE03868316820F0030034300C50012019
:101FB000FEF78CFDE41E002CF3DCD9F8008013E062
:101FC00098F8040001280BD10CE0D9F80000316822
:101FD00020F0030034300C500120FEF777FDE41EA2
:101FE000002CF2DCD7F80080326828F0030034308F
:101FF0002988115028886880BDE8F087542D000892
:1020000078000020502D0008024800210160017175
:102010008160704738010020064800210171C170BD
:10202000C1714170017081714171817041720172A1
:1020300070470000D00100200448002101220180E7
:10204000418002710181C16001747047B0010020BC
:102050002DE9F04707464FF08040144602680E46CF
:10206000DFF87C90DFF87CA000254FF47A714FF008
:102070000108012A1DD00268112A18D184F80480B1
:10208000436A4FF6FF72D31A23603B888B420ED30C
:1020900042622068FEF7CDFA4946FEF7EFF8514656
:1020A000FEF7BAF8A0603D80357086F80180BDE883
:1020B000F0872571426A22603A888A42F7D34562E6
:1020C0002068FEF7B6FA4946FEF7D8F85146FEF703
:1020D000A3F8A0603D8086F800807570E7E70000F7
:1020E0000000344400007042074800210160416054
:1020F0008160C16001614161044981610449C1613C
:1021000004490162704700008C0100206F12033DFA
:1021100017B7513A17B751382DE9FF5F9346064676
:10212000DDE90E24408909284FD91946584600F0A8
:1021300055F801988168DBF80C00FEF767F820601D
:10214000676881463946FEF70FF8DFF884A05146EC
:10215000FEF762F84FF0FF31FEF7CEF821690D4629
:10216000FEF702F88046E06039464846FEF74EF832
:102170005146FEF783F8A06007464046216AFEF705
:102180004BF880463846E169FEF746F80746484670
:10219000A169FEF741F83946FDF7E6FF4146FDF734
:1021A000E3FF0C496061884202DC0B49884201D997
:1021B000E56061615A4660690199FFF7D9FE2068C0
:1021C0006060E068206100207081BDE8FF9F000032
:1021D0000000104100004041000040C170B50546BC
:1021E000487A14460E4601282AD194F82B00432839
:1021F00026D194F8280094F82A10303800EBC00259
:1022000002EB001001EB800094F829100D4A01EB5D
:10221000810102EB410108442734FEF701FA01462F
:10222000E8602078302801D0012000E000202874E8
:102230000220FFF759FEFEF71AFA2881002070727B
:1022400070BD0000F0FDFFFF10B5044600210F48EF
:10225000FFF780FB04210D48FFF77CFB0C48016869
:102260000A484038FFF7CAF90A4801680748403869
:10227000FFF7C4F905484030FFF7C0F8214603488E
:102280000122BDE810408030FFF7AABC7800002092
:10229000582D00085C2D000804480021C180818071
:1022A000018141814180018070470000C40100200C
:1022B0002DE9FC410646808814460D46632823D943
:1022C000A868FEF7D4F980B264212A79B0FBF1F551
:1022D000B0FBF1F301FB15050A21B0FBF1F7B5FBEB
:1022E000F1F501FB1700CDE9005004F1080007A14A
:1022F000054600F0E1FA82B2A4F8442029460648D7
:10230000FFF7CCFC0020B080BDE8FC81532564259C
:102310006425642564434600F8000020024900203B
:10232000A1F8440070470000440100207047FEF708
:10233000C9BC10B590B028216846FDF70AFF1421EA
:102340000AA8FDF706FF022000900120049010204B
:102350000024059007946846FEF756FE0F20CDE94D
:102360000A040C940D9400210AA80E94FEF740FD77
:1023700010B010BD0D48016841F0010101604168D5
:102380000B4A1140416001680A4A1140016001682E
:1023900021F480210160416821F4FE0141604FF485
:1023A0001F0181600449C0030860704700100240AB
:1023B0000000FFF8FFFFF6FE08ED00E00148FFF720
:1023C0004CB90000380000200148FFF746B9000072
:1023D000780000200148FFF740B90000B800002055
:1023E000F0B50268164B174C174D4FF080479842D6
:1023F00005D0B84203D0A04201D0A84203D122F0B8
:1024000070064A683243984205D0B84203D0A042D1
:1024100001D0A84203D122F44074CA68224322F0BA
:1024200080044A69224302608A68C2620A68826242
:10243000984201D10969016301214161F0BD0000A9
:10244000002C0140000400400008004010B50123AA
:10245000046A8B409C430462036A8A40134303620C
:1024600010BD10B5846842EA032224F47F440A4375
:102470002243826010BD826822F070020A4342F05B
:10248000070181607047000030B5026A22F0010246
:102490000262026A4368846924F073050C682C4365
:1024A00022F002058A682A430A4DA8420BD122F085
:1024B0000805CA6823F440732A434D6922F00402D8
:1024C0001D438B692B434360846149684163026209
:1024D00030BD0000002C014030B5026A22F010022D
:1024E0000262026A436884690D6824F4E64444EA9F
:1024F00005248D6822F0200242EA05120B4DA84205
:102500000ED1CD6822F0800242EA05124D6923F413
:10251000406343EA85038D6922F0400243EA850364
:102520004360846149688163026230BD002C0140D0
:1025300030B5026A22F480720262036A4268C4699A
:1025400023F4007324F073050C682C438D6843EA70
:1025500005230C4DA8420ED1CD6823F4006343EA55
:1025600005234D6922F4405242EA05128D6923F495
:10257000806342EA05124260C4614968C163036234
:1025800030BD0000002C014030B5026A22F48052B8
:102590000262046A4268C3690D6823F4E64343EAB1
:1025A00005238D6824F4005444EA0534064DA842FE
:1025B00004D14D6922F4804242EA85124260C3612F
:1025C00049680164046230BD002C014010B5036A03
:1025D000046A24F001040462846924F0F00444EAEB
:1025E000021423F00A020A438461026210BD10B58E
:1025F000036A23F0100303628369046A23F47043BF
:1026000043EA023224F0A00343EA0111826101622D
:1026100010BD10B5406A0021C185C184FFF7E5F9FE
:1026200010BD0168CA6822F49072CA6001684A69E4
:1026300022F001024A61202180F83A10704710B55B
:1026400090F83A10222901D0022010BD8168B1F51E
:10265000805F11D00169002901681FD0496801F02D
:102660007F03816A4A1C82620B70C18D491E090476
:10267000090CC18518D02BE00269816A002A026822
:10268000526805D0D2B20A80816A491C8162ECE7A7
:10269000C2F308020A80816A891CF7E74A68816AE6
:1026A0004B1C83620A70E0E70168CA6822F02002CE
:1026B000CA600168CA6822F48072CA6001684A6907
:1026C00022F001024A61202180F83A10FFF7B2FAA5
:1026D000002010BD2DE9F041044600680169E26860
:1026E00021F44051114301612169A06808436169E7
:1026F00008432168CA6841F20C639A430243CA60E6
:1027000020684169A26921F44071114341614C493B
:1027100020686425322688423CD1FEF72FFC00EB6E
:10272000C00101EB001061688900B0FBF1F7FEF712
:1027300025FC00EBC00101EB00106168B046890088
:10274000B0FBF1F0B0FBF5F06FF01801484307EB78
:10275000800106EB0110B0FBF5F000F0F006FEF78B
:102760000DFC00EBC00101EB001061688900B0FBBB
:10277000F1F0B0FBF5F006EB0016FEF7FFFB00EB07
:10278000C00101EB001061688900B0FBF1F7FEF7B2
:10279000F5FB3BE0FEF7E2FB00EBC00101EB0010B4
:1027A00061688900B0FBF1F7FEF7D8FB00EBC001D0
:1027B00001EB00106168B0468900B0FBF1F0B0FB9E
:1027C000F5F06FF01801484307EB800106EB0110AC
:1027D000B0FBF5F000F0F006FEF7C0FB00EBC00127
:1027E00001EB001061688900B0FBF1F0B0FBF5F07F
:1027F00006EB0016FEF7B2FB00EBC00101EB001088
:1028000061688900B0FBF1F7FEF7A8FB00EBC0019F
:1028100001EB001061688900B0FBF1F0B0FBF5F04E
:102820006FF01801484307EB800108EB0110B0FB83
:10283000F5F0216800F00F0030448860BDE8F081B9
:102840000038014090F83910212901D0022070474A
:102850008168B1F5805F016A0BD04A1C0262026890
:1028600009785160C18C491E0904090CC1840ED03D
:1028700017E009880268C1F3080151600169002965
:10288000016A02D0491C0162ECE7891CFBE7016880
:10289000CA6822F08002CA600068C16841F0400145
:1028A000C1600020704700000148FFF79FB800009A
:1028B000F8000020FEE700000FB4084B10B504A993
:1028C00002AA039800F01CF8044602A9002000F0B8
:1028D000B8F9204610BC5DF814FB0000432C00083A
:1028E00002E008C8121F08C1002AFAD170477047D9
:1028F000002001E001C1121F002AFBD17047000037
:102900002DE9FF4F8BB088460546002606E02528B6
:102910000BD0DDE90D1290476D1C761C287800283D
:10292000F5D10FB03046BDE8F08F0024A146A24695
:102930000122AE4900E0044315F8013F203B02FAB2
:1029400003F00842F7D128782A2810D06FF02F0220
:102950002878A0F13001092915D809EB890102EB8B
:10296000410144F0020400EB01096D1CF0E758F846
:10297000041B5FEA010903D544F40054C9F10009BE
:1029800044F002046D1C28782E2817D115F8010F89
:1029900044F004042A280ED06FF02F022878A0F10A
:1029A000300109290AD80AEB8A0102EB410100EB48
:1029B000010A6D1CF2E758F804AB6D1C28786C28EE
:1029C0000FD006DC4C2817D068280DD06A2814D107
:1029D00004E0742810D07A280FD10DE044F40014DC
:1029E0000AE044F4801401E044F440146978814220
:1029F00002D104F580146D1C6D1C2878692865D0FF
:102A000006DC00288DD0632827D0642806D15DE03D
:102A10006E2808D073282AD0752877D0DDE90D12EA
:102A20009047761CE0E0C4F30250022809D0032846
:102A30000DD0D8F8001004280DD00E6008F104085D
:102A4000D2E0D8F80010F217C1E90062F6E7D8F832
:102A500000100E80F2E70E70F0E718F8041B8DF8F6
:102A6000001000208DF80100EB46012003E058F82B
:102A700004BB4FF0FF3061074FF0000701D40AE0BC
:102A80007F1C57450DDA8742FADB1BF80710002937
:102A9000F6D106E07F1C8742FCDB1BF807100029FB
:102AA000F8D1DDE90D23A9EB07008146214600F0AE
:102AB000B1F83044C61904E0DDE90D121BF8010B32
:102AC00090477F1EF8D22146484688E058F8040B0C
:102AD000C4F302514FF00A0B032900D100B20429BC
:102AE00000D140B2002802DA40422D2102E0210547
:102AF00005D52B218DF82410012104E006E0E10723
:102B000010D02021F6E708AF089113E058F8040B25
:102B1000C4F302514FF00A0B032900D180B20429FB
:102B200000D1C0B20021EEE75946FDF7E0FD30319B
:102B300007F8011D0028F7D1ADEB070000F1200BCD
:102B4000600702D524F4803401E04FF0010ADA4531
:102B500002DDAAEB0B0000E00020824600EB0B0137
:102B600008980144A9EB01000A90E00306D4DDE9CE
:102B70000D2321460A9800F04DF806444FF0000955
:102B800008E009A911F80900DDE90D12904709F1E3
:102B90000109761C08998945F3DBE0030CD5DDE9D2
:102BA0000D2321460A9800F035F8064404E0DDE9DB
:102BB0000D1230209047761CBAF10001AAF1010AEB
:102BC000F5DC05E0DDE90D1217F8010B9047761CE6
:102BD000BBF10001ABF1010BF4DC0A982146DDE901
:102BE0000D2300F005F806446D1C97E60928010046
:102BF0002DE9F041044600251E461746880404D4FA
:102C000005E039462020B0476D1C641EF9D52846E2
:102C1000BDE8F0812DE9F041044600251E469046AE
:102C2000C80301D5302700E02027880404D505E03B
:102C300041463846B0476D1C641EF9D52846BDE8AC
:102C4000F0810A68531C0B60107070471CB5FEF7CA
:102C500041F8FFF76EFBFFF759F8FFF7A5F8FFF70C
:102C6000D1F8FFF703F9FFF73BF836483449002461
:102C700001604FF4E131C0E901140C21C460C0E9E6
:102C800004418461C461FEF739FFFFF7BDF9FFF726
:102C9000D3F9FFF729FAFFF741FBFFF7BDF9FFF77B
:102CA000FBFA28484C30FFF7CFFA26484C30FFF7A4
:102CB000CBFA2548234DA0460068B83520F003071D
:102CC00022484FF07E56A5F59C7B0068A5F16C0963
:102CD00020F003043434A5F1240A3437194A4C3265
:102CE00002F18C01A1F12000FFF778FA154A403279
:102CF00002F19801A1F10C00FFF7AAF9E868B042CF
:102D000008DADBF8002042F80780DBF8001041F811
:102D100004800BE00B4BCDE9009AD833A3F12002DD
:102D2000A2F1780101F18C00FFF7F6F9054A4C3267
:102D3000A2F10C0101F18C00FFF7BAFACEE7000016
:102D400000380140F8000020502D0008542D0008E4
:102D5000000000000400000000000000040000006B
:102D6000000000000000000001020304060708093B
:102D70000000000001020304982D0008000000205C
:102D800010000000E0280008A82D00081000002016
:102D9000D0050000F028000801000000100000002D
:082DA0000000000000A24A043B
:04000005080000ED02
:00000001FF
